:020000040800F2
:10000000100B0020D5010008D9010008DB01000811
:10001000DD010008DF010008E10100080000000028
:10002000000000000000000000000000E3010008E4
:10003000E501000800000000E7010008E9010008F0
:10004000EB0100082328000825280008EB01000820
:100050002728000829280008EB010008EB01000808
:100060002B2800082D2800082F280008EB01000885
:10007000EB010008EB010008EB010008EB010008B0
:10008000EB010008EB010008EB0100084128000823
:10009000432800084B2800084D280008EB01000801
:1000A0004F28000851280008532800085528000848
:1000B00057280008EB010008592800085B280008B1
:1000C0005D2800085F28000861280008330F000839
:1000D00063280008590C00086528000867280008F4
:1000E000692800086B2800086D28000800F002F855
:1000F00000F05FF80AA090E8000C82448344AAF163
:100100000107DA4501D100F054F8AFF2090EBAE860
:100110000F0013F0010F18BFFB1A43F0010318473B
:1001200088420000A84200000A444FF0000C10F87A
:10013000013B13F0070408BF10F8014B1D1108BF65
:1001400010F8015B641E05D010F8016B641E01F805
:10015000016BF9D113F0080F1EBF10F8014BAD1C55
:100160000C1B09D16D1E58BF01F801CBFAD505E073
:1001700014F8016B01F8016B6D1EF9D59142D6D3CD
:10018000704700000023002400250026103A28BFF5
:1001900078C1FBD8520728BF30C148BF0B607047F9
:1001A000642903F0CF84002070471FB51FBD10B530
:1001B00010BD03F091FD1146FFF7F7FF00F024F8A2
:1001C00003F0AFFD03B4FFF7F2FF03BC00F084FAC5
:1001D00030BF000008480047FEE7FEE7FEE7FEE705
:1001E000FEE7FEE7FEE7FEE7FEE7FEE70348044919
:1001F000024A044B70470000ED000008100900207F
:10020000100B0020100900200024092000F009FA3A
:10021000482000F097F84FF4E131482000F06AFAE6
:10022000012000F0E9F9142000F0A8F800F017FD13
:1002300040F2022000F0C2FA0823384A0021384870
:1002400000F0F0FA02F056FA02F06FFA01F06EFCDC
:100250004FF47A7000F092F84FF47A110020314A8E
:10026000C2E900104FF400702F4908604FF4FA50B3
:100270002E49086050E02E4800782E4909788842BF
:100280004AD002202C490870002400E0641C092C8C
:10029000FCD32848007800EB8000284911F82000A2
:1002A000012812D12348007800EB800001EB800088
:1002B000007A5A2823D11F49097801EB81011F4A8E
:1002C00002EB810000F0ACFE19E01A48007800EB68
:1002D00080001A4911F8200088B91648007800EB10
:1002E000800001EB8000007A5C2808D11149097870
:1002F00001EB8101114A02EB810000F0A0FE002019
:100300000F4908600B480078401C322190FBF1F245
:1003100001FB120007490870ADE700000000111151
:1003200000080140780100208001002084010020A5
:100330000D0000200E0000200C00002038020020DC
:10034000080000204FF0E021096921F004014FF07E
:10035000E0221161C21700EB5272C2F3C702224BB6
:100360001A701946097801EB4102C2EBC1114FF630
:10037000FF7202EAC1011D4A1180704701461B4A03
:1003800012884A434FF0E0235A6100229A61012209
:100390001A6100BF4FF0E022106910F0010F02D087
:1003A00010F4803FF6D000224FF0E0231A619A61EA
:1003B000704701460C4A12784A434FF0E0235A61D5
:1003C00000229A6101221A6100BF4FF0E0221069F9
:1003D00010F0010F02D010F4803FF6D000224FF051
:1003E000E0231A619A61704700000020020000209B
:1003F000AC4A0A400243AC4B1A60704701460723DF
:1004000023EA01021202A84B1B1D18684FF6FF03D6
:100410001840A64B18431043A34B1B1D1860704790
:100420002DE9F0478046894614461D462046E117CF
:1004300004EB9171C1F3870AE11704EB9171891004
:10044000A4EB8101CFB2042000EBC700C7B228465D
:10045000FFF7D4FFC5F1040008FA00F60F20284189
:1004600000EA0900064306F00F06202C0CDA90483B
:1004700001684FF0010000FA04F041EA00014FF07A
:10048000E020C0F800110DE08A480068A4F12001C6
:100490004FF0010202FA01F240EA02004FF0E021BF
:1004A000C1F80401844850F82A0006FA07F140EA2E
:1004B0000100814941F82A00BDE8F08770B5044683
:1004C0000B46CE1701EB9676C6F38700CE1701EBED
:1004D0009676B610A1EB8606B606350E774B9B696D
:1004E00043F00103754EB3614FEAB63353F8203041
:1004F0000F26AE40B343724E46F82030334653F8D1
:10050000203004FA05F61E436D4B43F820606D4B16
:100510001B6801268E4033436A4E336012F0010F90
:1005200008D0684B0C331B6801268E403343654E60
:100530000C36336012F0020F08D0624B08331E688D
:1005400001238B401E435F4B08331E6070BD00B516
:1005500000205A490861C860142048610020886161
:10056000C8610846006840F001000860084640681D
:1005700055490840514948600846006853490840B9
:100580004E4908600846006820F48020086008464C
:10059000406820F4FE0048600020886000214FF091
:1005A0000060FFF725FF00BD10B53F480830006828
:1005B00040F004003C49083108604048C06940F000
:1005C00080503E49C8614248406840F480704049CC
:1005D00048600846006840F004000860084600686B
:1005E00040F002000860FFF7F3FD10BD2F48001D2A
:1005F0002D49091D08607047014649062F4A926936
:1006000042F001022D4B9A612D4A083A526822F0BD
:10061000E0622B4B083B5A601A4652680A435A6004
:10062000704730B504460025FFF791FF2348006866
:1006300040F480302149086000BF20480068400C29
:10064000FBD04FF480601D494860A01EC4B208462C
:10065000406840EA844048600846406840F4803082
:1006600048601C48006840F032001A49086013488E
:10067000006840F080701149086000BF0F480068B2
:10068000400EFBD00D48406840F002000B49486026
:1006900005E00A484068C0F3870505F00305022D10
:1006A000F7D130BD80FFFF1F08ED00E00000FA0524
:1006B00000E100E004E100E000E400E0001002409E
:1006C00008000140000401400000FFF8FFFFF6FEB3
:1006D0000070004000200240014600BF704700BF8C
:1006E000324A128812F0400FFAD0C2B22F4B1B1DB3
:1006F0001A8070472DE9F05F05460E46300103F081
:100700005FFC81462A4905FB01F003F059FC824653
:10071000494603F073FB0746384603F031FC84B2C8
:10072000204603F04DFC8346394603F029FD8246FE
:100730004FF0834103F058FC814603F021FC8046D2
:100740004FF6FF7000EA041404EB080084B2194865
:10075000806940F00400174988610846806940F4C8
:10076000804088611448006820F47F601249086066
:100770000846006840F40B6008600E48C06840F40A
:1007800080400C49C8600846C06820F48040C860BA
:10079000064808300480001D008842F20C0108431E
:1007A00002490C310880BDE8F09F0000003801408C
:1007B00040420F0000100240040801400146084674
:1007C000CA1701EB1262121204D0012A04D0022AC5
:1007D00012D109E000207047F948C06901228A401F
:1007E0001043F74AD06109E0F548806901228A4048
:1007F0001043F34A906101E00020ECE700BF0120C4
:10080000E9E710B502460B460020002100BF06E0D4
:1008100052F82140844201D952F82100491C9942E2
:10082000F6D310BD30B501290CD14468C2EB0215D6
:10083000C5F1FF352C404460446803FB02F52C43AE
:1008400044600BE00468C2EB0215C5F1FF352C4093
:100850000460046803FB02F52C43046030BD70B5EE
:1008600004460D46E8B2042322460021FFF7D8FDD6
:1008700070BDD4490880704770B50446002504E077
:100880004FF47A70FFF77AFD6D1CA542F8D370BD66
:100890002DE9F04707460C46164698462046E117D4
:1008A00004EB9171C1F387052046E11704EB9171C8
:1008B0008910A4EB810189064FEA1169C04880695B
:1008C00040F00100BE4988614FEAB13050F8250080
:1008D0000F2101FA09F18843BB4941F82500084678
:1008E00050F82500B8490839791A0222C2EB912143
:1008F00001FA09F10843B44941F82500B3480168F9
:100900000120A0400143B148016016F0010F08D05A
:10091000AE480C3001680120A0400143AB480C30C8
:10092000016016F0020F08D0A848083000680121C5
:10093000A1400843A54908310860052C05DAA11D2E
:10094000C8B24146FFF78BFF0AE00A2C04DA4146A1
:100950001720FFF784FF03E041462820FFF77FFFC1
:10096000BDE8F0870246002105E0481CC1B2C82955
:1009700001DD002070479648008910F0020FF4D086
:1009800093488281002105E0481CC1B2C82901DDDD
:100990000020EFE78E48008910F0010FF4D08C485A
:1009A0008089C0B2E6E700B540F20220FFF706FFFB
:1009B0004FF40370FFF702FF0B23864A002186489D
:1009C000FFF730FF0120854908608549C1F898018B
:1009D000C1F89C017E4800887D490880084600884F
:1009E00040F4007008800846008840F48070088059
:1009F0000846008840F00400088008460088088007
:100A00000846008808800846008808800846008854
:100A100040F03800088008460088088008460088B2
:100A200040F0400008804FF0FF00FFF79BFF00BD43
:100A30000FB4F0B58DB000210122AEE01298455CF4
:100A4000129808444678252D70D1632E6FD004DCAF
:100A5000482E4DD0622E26D126E0642E02D0682E7C
:100A6000F9D16AE000201446521C12AF57F8243026
:100A70009DF820408DF8204000BF0BE00A24B3FB16
:100A8000F4F704FB173408AF3C540A24B3FBF4F327
:100A9000441CE0B2142801DA002BEFD101E0441E1F
:100AA000E0B20028FBDC71E000231446521C12AFB8
:100AB00057F824009DF800408DF8004000BF0DE07D
:100AC000044600EBD4777F10A0EB4707FFB20DF888
:100AD000037000EBD47778105C1CE3B2142B01DABE
:100AE0000028EDD101E05C1EE3B2002BFBDC4DE001
:100AF00000231446521C12AF57F8240000BF10E028
:100B00000446C71700EB17773F11A0EB07170DF14D
:100B1000200C0CF80370C71700EB177738115C1C1A
:100B2000E3B2142B01DA0028EAD103E031E027E038
:100B30005C1EE3B2002BFBDC28E000231446521CB1
:100B400012AF57F8240000BF10E00446C71700EBAF
:100B500017773F11A0EB07170DF1200C0CF803706D
:100B6000C71700EB177738115C1CE3B2142B01DABE
:100B70000028EAD101E05C1EE3B2002BFBDC05E0BB
:100B80001346521C12AC14F8230000BF00BF491CCE
:100B900000E000BF00BF491C00BF1298405C002865
:100BA0007FF44CAF0DB0F0BC5DF814FB30B50246DD
:100BB0000C460021002500230A2C23D11AE0000056
:100BC00000100240044400400800014000040140BD
:100BD0000030014000001011000801409401214242
:100BE0000000214203EB83004300505C3038034493
:100BF000491C6D1C505C0D2802D0505C0A28F1D1B4
:100C0000184630BD40F6EA00FBE730B502460B4619
:100C100000211478002000BF07E032F91150A542EE
:100C200002DC12F811400846491C9942F5D330BD48
:100C300003460021012200BF06E0134201D008460E
:100C400070475200481CC1B22029F6DB0020F7E7AC
:100C50000146012088407047DA480088704710B587
:100C600040F20320FFF7AAFD4FF40370FFF7A6FD43
:100C700040F20220FFF7A2FD04239A020021D2488D
:100C8000FFF7D0FD04239A040021CF48FFF7CAFDE7
:100C90000B234FF480320021CB48FFF7C3FD042320
:100CA0009A060121C948FFF7BDFD03234FF080726A
:100CB0000021C548FFF7B6FD0020C5490860C548BA
:100CC000806940F00100C3498861C348406820F052
:100CD0000100C14948600846406840F00100486092
:100CE000BE480088BD49088008460088088008463C
:100CF00000884FF6FB7100EA0100B84908800846F9
:100D0000008808800846008840F0020008800846F5
:100D1000008840F0010008800846008808800846E6
:100D2000008808800846808840F0400088804FF0A6
:100D300002034FF023024FF000010846FFF770FB5B
:100D4000A648008840F04000A449088010BD014634
:100D50000022A248818105E0501CC2B2C82A01DDF0
:100D6000002070479D48008910F0020FF4D0002247
:100D70009A488089C0B2F4E702460021002305E0CA
:100D8000491CB1F5FA6F01DD0020704793480089D6
:100D900010F0010FF4D091488089C3B205E0491CDE
:100DA000B1F5FA6F01DD0020EFE78C48008910F003
:100DB000020FF4D08948828105E0491CB1F5FA6F31
:100DC00001DD0020E1E78548008900F002000228EB
:100DD000F3D000211846D8E7014600BF80480078CC
:100DE000052870D2DFE800F0031F5A7087007029D1
:100DF00003D101207A4A107014E0902903D1022017
:100E0000774A1070EAE7B02903D10320744A1070C2
:100E100008E0C02903D10420714A1070DEE70020E9
:100E20006F4A107082E06F480068082826DB6E4821
:100E3000007800EB80006D4A02EB8000694A12687E
:100E400081540020674A106067480078401C3222B5
:100E500090FBF2F302FB1300654A1278904209D02E
:100E600061480078401C322290FBF2F302FB130031
:100E70005D4A107000205A4A10700EE05A480078FF
:100E800000EB8000594A02EB8000564A12688154F8
:100E900054480068401C534A106047E055480068B9
:100EA000042807DB00204E4A1070524A1060524856
:100EB000C07870474F4802680068401C4D4B18606E
:100EC0004D48805CF5E730E04C4802680068401C03
:100ED0004A4B18604A480068815418460068B0F5CB
:100EE000007F07DB00201A4610603D4A1070012089
:100EF000444A10601AE044480068B0F5007F08DDFD
:100F00000020414A1060364A107001203D4A1060AE
:100F100004E03D480068401C3B4A10603A480068C5
:100F2000401E374A1268105CC3E700BF00BF0020B4
:100F3000BFE700B52948008910F0010F0BD03348F6
:100F40000078FFF719FF3249087008460078FFF76C
:100F500043FF2E49087000BD7047704770B50446C6
:100F60000D461646324629462AA002F0ABFD22481D
:100F700005602348046001201549086000BF21482E
:100F800000680028FBD04FF000001E49086010499F
:100F9000086070BD10B5034620480844164C206018
:100FA0001748036001200A4C206000BF1548006804
:100FB0000028FBD04FF00000124C2060044C206051
:100FC00010BD000000380140000C01400008014045
:100FD0009881214200100240000001400030014091
:100FE000180000201C0000200D0000203802002006
:100FF0000E000020200000202C00002024000020F3
:1010000030000020140000202800002010000020E4
:10101000340000205225642C2564000040420F005B
:1010200010B5044600BF0D4800780028FBD1012010
:101030000A4908702146002001F099FB10BD10B547
:10104000044600BF064800780028FBD1012004496F
:1010500008702146002001F08AFB10BDAD00002081
:10106000AC00002010B504462CB90120FE490968E7
:101070000882002010BDFD49096808688047FA48C9
:1010800000680A30F6E710B5F7480068C078F849FC
:101090004978884213DCF4480068807878B9F248CF
:1010A0000068808858B9F0480068C078EE4909683F
:1010B0008872EE49096848688047002010BD022008
:1010C000FCE710B504462CB90120E74909680882FD
:1010D000002010BDE549096888688047E24800683B
:1010E0000C30F6E710B5E04B1B68D978DE4B1B6877
:1010F0005879E04B1B689A6990470446DA480068C3
:10110000807AE8B13CB9D8480068007918B9D64867
:101110000068807808B1022010BD8CB9D3490968F5
:10112000C8688047D04800684079CF490968C872CC
:10113000CD480068C078CC49096808730020EBE707
:101140000220E9E710B504462CB90220C649096817
:101150000882002010BD0020C7490880C2480068EE
:10116000007810F07F0F1CD1BF490968487A10F051
:10117000200F05D0C049097841F00201BE4A117024
:1011800010F0400F06D0BC49097801F0FE01BA4AC0
:10119000117005E0B849097841F00101B64A1170B3
:1011A00036E0B1480068007800F07F00012801D1E6
:1011B000B148CFE7AC480068007800F07F00022813
:1011C00024D1A94A1268517901F00F0011F0800F63
:1011D0000DD0AA4A52F8202002F03002102A14D171
:1011E000A54A127842F00102A34B1A700DE0A34AFF
:1011F00052F8202002F44052B2F5805F05D19E4A99
:10120000127842F001029C4B1A7001E00020A1E725
:10121000964909680869804797489BE72DE9F04798
:1012200091480068007800F07F08B8F1000F0AD1FB
:101230008D480068407A00F0DF008B4909684872E9
:101240000020BDE8F087B8F1020F76D1864800682B
:10125000408818B984480068007908B10220F0E796
:10126000DFF80C9280480068477927F080052C460B
:101270007D480068407910F0800F05D07F4850F815
:10128000240000F0300604E07C4850F8240000F40C
:10129000405699F80000A84204D91EB1724800686F
:1012A000807A08B90220CCE717F0800F0ED073487F
:1012B00050F8240000F03000102837D1E0B200F0E0
:1012C000D1FFE0B2302100F09EFE2FE06B4850F8D5
:1012D000240000F44050B0F5805F27D1A4B9684ADB
:1012E00092F82C10E0B201F042F8644951F8241051
:1012F0004BF68F7201EA020080F4805080F40050B7
:101300005E4941F8240011E0E0B200F096FF5B492D
:1013100051F824104BF68F7201EA020080F48050DD
:1013200080F40050554941F8240000BF4F49096836
:1013300048698047002084E7FFE700BF022080E77C
:101340002DE9F04148480068467926F080073C4680
:1013500045480068407910F0800F05D0474850F8A4
:10136000240000F0300504E0444850F8240000F464
:1013700040553F480078A04208D93B480068408863
:1013800020B91DB138480068807A10B90220BDE844
:10139000F08116F0800F0CD0384951F8241048F62F
:1013A000BF7201EA020080F01000344941F82400C5
:1013B0000CE0324951F824104BF68F7201EA02001A
:1013C00080F480502D4941F8240000BF2749096866
:1013D000886980470020DAE710B523480068407A22
:1013E00040F0200020490968487220490968C8690E
:1013F0008047002010BD10B502461B480068438A94
:1014000032B98888C01A184C24682082002010BD88
:1014100008681844FBE72DE9F0411348006800F123
:1014200010042688A068C0B1BEB1A588B54200D915
:101430003546A8B2A168884707462088401B20800F
:10144000608828446080002000F05DFF8046AAB2DA
:101450004146384600F078FD00BF2088D8B14FF4EF
:101460004050084908800FE0400000204C00002058
:10147000B40000204400002038000020005C004040
:10148000B8000020500000200021084600F048FF6E
:101490003020F94908802088A188884204DB032095
:1014A000F6490968087218E02088002804DD052044
:1014B000F2490968087210E0208870B90620EF49E7
:1014C000096808720021EE48006880B2801CED4A6D
:1014D00042F810103020E8490880BDE8F0812DE97D
:1014E000F047E648006800F110052E88E3480068E0
:1014F000077AD6B9042F18D1E348007801280FD114
:101500000021DF48006880B2801CDE4A42F81010DB
:101510003020D949088000BF0020DB49087003E073
:1015200007271020D449088027E0AC88A64201D8BC
:10153000042000E002200746B44200D93446A0B29D
:10154000A96888478046002000F0D1FE8146A2B2FB
:101550004946404600F0DEFCA1B2002000F0E0FE6B
:101560002888001B28806888204468803020C24971
:1015700008800002C549088000BFC04909680F7291
:10158000BDE8F08770B50226BC4800684478BB48C7
:101590000068007810F07F0F4AD1092C03D1FFF7C3
:1015A00072FD064665E0052C14D1B4480068C07889
:1015B0007F280BDCB1480068807838B9AF480068F4
:1015C000808818B9AD480068807A08B108256BE0BA
:1015D00000264EE0032C14D1A8480068C0780128EA
:1015E0000DD1A6480068808848B9A4480068407AB0
:1015F00010F0200F03D0FFF7EFFE064639E0022679
:1016000037E0012C35D19D480068C07801280DD104
:101610009A480068808848B998480068407A10F075
:10162000200F03D0FFF7FAFD064622E0022620E055
:1016300092480068007800F07F00012805D10B2C4B
:1016400017D1FFF74FFD064613E08C48006800787D
:1016500000F07F0002280BD1012C03D1FFF7DEFD43
:10166000064606E0032C04D1FFF76AFE064600E0BA
:1016700002264EB1E0B2864A126851698847064692
:10168000032E01D109250FE00EB108250CE0062537
:1016900000217B48006880B2801C7A4A42F8101012
:1016A00030207549088000BF744909680D7270BD0B
:1016B0002DE9F84F7148006845780027BA46062D95
:1016C0001AD16E480068007810F07F0F13D16B4973
:1016D00009688878012803D16D490968CF690AE053
:1016E000022803D16A4909680F6A04E0032802D17D
:1016F000674909684F6A97E0002D65D15F48006827
:101700004088002860D15D480068C08802285BD10D
:101710005A4800680079002856D158480068007877
:1017200010F07F0F06D155480068808810B9AFF2DD
:10173000EB5779E051480068007800F07F000128FD
:1017400011D14E4909684879514909688A690021CF
:101750009047002868D149480068807A002863D003
:10176000AFF21F6760E045480068007800F07F0036
:10177000022859D141480068407900F00F063F48DF
:101780000068407900F070093C480068407910F02A
:10179000800F06D03A48503850F8260000F0300844
:1017A00005E03748503850F8260000F440583948D2
:1017B0000078B04238D9B9F1000F35D1B8F1000F37
:1017C00032D0AFF27F672FE0082D08D12B48006898
:1017D000007810F07F0F27D1AFF2777724E00A2D41
:1017E00022D126480068007800F07F0001281BD134
:1017F00022480068807AB8B120480068408898B9CB
:101800001E480068007978B91C480068C088012823
:101810000AD11A49096848791D4909688A6900216D
:10182000904708B9AFF2657757B114480068A0F83F
:1018300012A01248006887610020B84700240FE01A
:101840000E4A12685078124A126811698847044695
:10185000032C05D10920094909680872BDE8F88FF1
:1018600006480068008AA0F57F41FF3914D109209D
:10187000024909680872F1E7520000204000002088
:10188000505C004000600040360000205000002006
:1018900044000020B4000020022C03D099480068C6
:1018A000008A20B90820974909680872D6E7954848
:1018B0000068007810F0800F3CD092480068C08823
:1018C000009090480068008A0099884204D98D49A8
:1018D00000980968088223E08A480068008A8949DC
:1018E0000968C98888421BDA86480068008A8649E8
:1018F000096891F82C10884203DA002083490870A7
:101900000EE080480068008A7F49096891F82C1031
:1019100090FBF1F201FB120010B901207B49087025
:101920007948006890F82C10764800688182FFF7AB
:10193000D6FD06E003207349096808720003744964
:10194000088000BF8AE710B5724890F82C1000207C
:1019500000F00DFD6B480068007A082805D14002B0
:101960006B49088010206C49088066480068007A3E
:10197000092801D1012010BD0020FCE708B5674807
:10198000006880B2001D664931F8100080B201EB9A
:10199000400000905B480068007A09282FD000982A
:1019A00000785849096808700098401C0090009819
:1019B00000785449096848700098401C00900098CD
:1019C000801C0090009931F8020B009100F06BFE32
:1019D0004C49096848800098801C0090009931F8B3
:1019E000020B009100F05FFE46490968888000986C
:1019F000801C00900098008842490968C880012036
:101A00004049096808723F480068C08810B9FFF76C
:101A1000B9FD01E0FFF74CFEFFF795FF08BD30B5BB
:101A20000146404B1A7800200FE0C3B23B4C503CBB
:101A300054F8233048F68F742340C4B22343C4B211
:101A4000364D503D45F82430401C9042EDD341F0D6
:101A50008003324C241F236030BD10B52948006834
:101A6000047A022C01D0042C05D1FFF738FD25485B
:101A70000068047A1CE0062C19D1224800684078DE
:101A800005280ED11F480068007810F07F0F08D19C
:101A90001C490968C878FFF7C2FF23490968086A2A
:101AA00080471949096888688047082400E00824AD
:101AB000144909680C72FFF746FF10BD10B51148B4
:101AC0000068047A032C01D0052C05D1FFF7A3FC94
:101AD0000C480068047A0EE0072C05D10A49096811
:101AE000C8688047082406E0022C01D0042C01D1EC
:101AF000082400E00824034909680C72FFF723FF5B
:101B000010BD704740000020440000203600002037
:101B100050000020B800002052000020505C00401F
:101B200000600040B40000204C00002010B50848C0
:101B300008490860022009680872074807490860D8
:101B4000074808490860054909680868804710BDCA
:101B50002006002040000020B800002044000020A3
:101B6000E80000204C00002010B5002469E147F691
:101B7000FF70E1490860E148008800F00F00E0498B
:101B800008700846007800287DD1DB48443800689A
:101B900000F44050DB490880D7484438006800F022
:101BA0003000D9490880D449443909684BF68F720E
:101BB00001EA020080F40050CF4944390860096806
:101BC00048F6BF7201EA020080F02000CA49443999
:101BD0000860CA48008810F0100F38D10846006825
:101BE00048F60F710840C44944390860FFF735FFD3
:101BF000C149443909684BF68F7201EA0200C149B4
:101C0000098811F4805F01D080F48050BD490988B3
:101C100011F4005F01D080F40050B74944390860E6
:101C2000096848F6BF7201EA0200B749097811F065
:101C3000100F01D080F01000B349097811F0200F87
:101C400001D080F02000AC494439086010BDAA489A
:101C50004438006884B214F0800F3BD0A648443862
:101C6000006848F60F710840A34944390860FFF73F
:101C7000F4FEA149443909684BF68F7201EA02006B
:101C8000A049098800E0A3E011F4805F01D080F44E
:101C900080509C49098811F4005F01D080F4005005
:101CA000954944390860096848F6BF7201EA0200A4
:101CB0009549097811F0100F01D080F01000924979
:101CC000097811F0200F01D080F020008A494439B2
:101CD0000860BBE714F4006F3BD0874844380068C5
:101CE000C0F30E0048F68F710840834944390860FC
:101CF000FFF744FE8049443909684BF68F7201EAC8
:101D000002008049098811F4805F01D080F480507E
:101D10007C49098811F4005F01D080F400507649B5
:101D200044390860096848F6BF7201EA0200764942
:101D3000097811F0100F01D080F010007249097875
:101D400011F0200F01D080F020006B494439086069
:101D50007CE714F4004F74D0674844380068C0F33F
:101D60000E0048F68F710840634944390860FFF758
:101D7000A5FE6149443909684BF68F7201EA0200F9
:101D80006049098811F4805F01D080F480505D497A
:101D9000098811F4005F01D080F40050564944399D
:101DA0000860096848F6BF7201EA020056490978DE
:101DB00011F0100F01D080F010005349097811F094
:101DC000200F01D080F020004B49443908603DE7E6
:101DD0004B4800784849443951F8200084B214F443
:101DE000004F15D04648007851F82000C0F30E008F
:101DF00048F68F710840424909783F4A443A42F810
:101E000021003F490978491E404A52F82100804785
:101E100014F0800F15D03A4800783749443951F80A
:101E2000200048F60F71084035490978324A443A93
:101E300042F8210032490978491E354A52F82100FA
:101E400080472D48006880B22C49088010F4004F6C
:101E50007FF48DAE00BFF9E610B5002443E047F6ED
:101E6000FF70254908602548008800F00F002449CC
:101E70000870084600782049443951F8200084B29F
:101E800014F4004F16D01E48007851F82000C0F31B
:101E90000E0048F68F71084019490978164A443AED
:101EA00042F8210016490978491E184A52F82100C3
:101EB000804718E014F0800F15D0114800780E49C3
:101EC000443951F8200048F60F7108400C49097850
:101ED000094A443A42F8210009490978491E0C4A46
:101EE00052F8210080470448006880B20349088006
:101EF00010F4004FB3D110BD445C0040AE00002090
:101F00003C000020500000205200002090000020E3
:101F100074000020F0B5144604F1010C4FEA6C0780
:101F2000DFF848C00CEB41033D460AE00678401C50
:101F300090F800C046EA0C2223F8022B9B1C401CA0
:101F40006D1E002DF2D1F0BDF0B5561C7510074E78
:101F500006EB41042B4605E034F8047B20F8017BB6
:101F6000401C5B1E002BF7D1F0BD0000006000405C
:101F7000F84908607047F748006880B27047F54933
:101F8000091D08607047F348001D006880B2704763
:101F9000F0480830006880B27047EE490C310860A4
:101FA0007047EC480C30006880B270474FF6F8710B
:101FB0000140E84A103211607047E648103000686E
:101FC00080B27047E34A403A42F820107047014619
:101FD000E048403850F8210080B27047DD4A403A6E
:101FE00052F8202048F68F131A400A43D94B403B41
:101FF00043F8202070470146D648403850F8210069
:1020000000F4C060704710B5D24B403B53F820300D
:1020100048F6BF7403EA040211F0100F01D082F0F9
:10202000100211F0200F01D082F02002C94B403B7A
:1020300043F8202010BD10B5C64B403B53F820306C
:102040004BF68F7403EA040211F4805F01D082F42E
:10205000805211F4005F01D082F40052BD4B403B2E
:1020600043F8202010BD10B502460B461046FFF77E
:10207000AEFF0446012B06D124F48050B549403907
:1020800041F8220007E0022B05D124F01000B149ED
:10209000403941F8220010BD0146AE48403850F8A2
:1020A000210000F0300070470146AA48403850F83F
:1020B000210000F440507047A64A403A52F82020D0
:1020C00048F6BF7302EA030181F0100181F020019C
:1020D000A04A403A42F8201070479E4A403A52F8CF
:1020E00020204BF68F7302EA030181F4805181F4C2
:1020F0000051984A403A42F82010704795494039BB
:1021000051F8201041F4807148F68F721140914AC5
:10211000403A42F8201070478E49403951F820105B
:1021200048F68F6211408B4A403A42F820107047BF
:102130008849403951F8201048F68F621140854A8D
:10214000403A42F8201070478249403951F8201037
:1021500041F4807148F68F7211407E4A403A42F84D
:10216000201070477B49403951F8201041F48071AC
:1021700048F68F721140774A403A42F82010704773
:102180007449403951F8201048F68F621140714A65
:10219000403A42F82010704701466E48403850F8E7
:1021A000210000F03000102801D1012070470020EC
:1021B000FCE701466748403850F8210000F44050E1
:1021C000B0F5805F01D1012070470020FCE7614934
:1021D000403951F82010C1F30E0148F68F721140BA
:1021E0005C4A403A42F8201070475A49403951F849
:1021F000201048F60F721140564A403A42F820101B
:1022000070475449403951F8201048F68F721140F8
:1022100041F480414F4A403A42F8201070474D49FE
:10222000403951F8201048F68F72114041F04001BA
:10223000484A403A42F8201070474649403951F820
:10224000201011F4804F0CD04249403951F8201031
:1022500048F68F72114041F480413E4A403A42F8BC
:10226000201070473B49403951F8201011F0400FC1
:102270000CD03849403951F8201048F68F7211407F
:1022800041F04001334A403A42F820107047314A49
:10229000403A52F8202048F68F731A400A432D4BDB
:1022A000403B43F82020704701462A48403850F808
:1022B000210000F00F00704710B54A105300254A66
:1022C0001032126892B202EBC002234C44F8123072
:1022D00010BD10B54A1053001E4A1032126892B257
:1022E00002EBC002121D1C4C44F8123010BD014616
:1022F00018481030006880B200EBC100164A32F86E
:10230000100080B27047014612481030006880B259
:1023100000EBC100001D104A32F8100080B2704777
:102320000C4A1032126892B202EBC002921C0A4BA5
:1023300043F81210704702463E290FDD481111F094
:102340001F0F01D1431E98B24FF4004343EA80238C
:1023500013600BE0405C004000600040481011F04A
:10236000010F01D0431C98B283021360704710B56F
:102370000246D048006880B200EBC200801DCE4CFF
:1023800004EB40033E290BDD481111F01F0F01D172
:10239000441EA0B24FF4004444EA80241C6007E0CD
:1023A000481011F0010F01D0441CA0B284021C603F
:1023B00010BD0146BF48006880B200EBC100801C20
:1023C000BD4A32F81000C0F3090070470146B94811
:1023D000006880B200EBC100801DB74A32F81000DF
:1023E000C0F30900704730B54B105C00B14B1B685F
:1023F0009BB203EBC003B04D45F8134053105C0093
:10240000AC4B1B689BB203EBC0031B1D45F813408C
:1024100030BD10B54A105300A64A126892B202EBC2
:10242000C002A54C44F8123010BD10B54A1053003C
:10243000A04A126892B202EBC002121D9E4C44F8F0
:10244000123010BD01469B48006880B200EBC1000D
:10245000994A32F8100080B27047014695480068EA
:1024600080B200EBC100001D934A32F8100080B228
:10247000704730B50B46012B1FD18E49096889B2D0
:1024800001EBC001891C8C4D05EB41043E2A0BDD9C
:10249000511112F01F0F01D14D1EA9B24FF400458A
:1024A00045EA8125256007E0511012F0010F01D0A7
:1024B0004D1CA9B28D0225600AE0022B08D17D498E
:1024C000096889B201EBC001891C7B4C44F81120DA
:1024D000012B1FD17749096889B201EBC001891D21
:1024E000754D05EB41043E2A0BDD511112F01F0F13
:1024F00001D14D1EA9B24FF4004545EA8125256062
:1025000007E0511012F0010F01D04D1CA9B28D024D
:1025100025600AE0022B08D16649096889B201EBFF
:10252000C001891D644C44F8112030BD30B503460C
:1025300001291FD15F48006880B200EBC300801CF6
:102540005D4D05EB40043E2A0BDD501112F01F0FCC
:1025500001D1451EA8B24FF4004545EA802525600B
:1025600007E0501012F0010F01D0451CA8B28502FF
:1025700025600AE0022908D14E48006880B200EBCD
:10258000C300801C4C4C44F8102030BD30B50346CD
:1025900001291FD14748006880B200EBC300801DAD
:1025A000454D05EB40043E2A0BDD501112F01F0F84
:1025B00001D1451EA8B24FF4004545EA80252560AB
:1025C00007E0501012F0010F01D0451CA8B285029F
:1025D00025600AE0022908D13648006880B200EB85
:1025E000C300801D344C44F8102030BD01463148F2
:1025F000006880B200EBC100801C2F4A32F8100046
:10260000C0F30900704701462A48006880B200EB19
:10261000C100801D284A32F81000C0F3090070473D
:1026200001462448006880B200EBC100801D224AA8
:1026300032F8100010F47C4F01D0012070471D4883
:10264000006880B200EBC100801C1B4A32F8100009
:102650008005800D01D00220F0E70020EEE701297F
:102660000DD1144A503A52F8202048F68F731A4080
:1026700042F040020F4B503B43F820200EE002296D
:102680000CD10C4A503A52F8202048F68F731A4069
:1026900042F48042074B503B43F8202070470246EB
:1026A00041EA022070470146CAB20B1243EA0220F7
:1026B00070470000505C00400060004010B540F2E0
:1026C0000220FEF77BF803234FF4805200210748D5
:1026D000FEF7A8F810BD012803D10121044A1160BA
:1026E00002E00021024A116070470000000801402A
:1026F0008C0121423E48406820F480003C494860FB
:102700000846C06940F40000C86170470320394999
:10271000086070473848817A19B10521354A11603F
:1027200002E00121334A1160704710B53348006858
:1027300040F480203149086030480830006840F497
:1027400080202E4908310860022314220121084606
:10275000FDF766FE02232A2201210020FDF760FE1C
:1027600010BD10B5002000F0CBFB10BD704770B558
:1027700006460C46207870B9607820700120FFF77B
:10278000B6FD0546082229462046FFF7C3FB012077
:10279000FFF792FC0BE00220FFF7A9FD054605229A
:1027A00029462046FFF7B6FB0220FFF785FC70BDE7
:1027B00010B5134B18681B1D19681B1D1A68A8B1AA
:1027C000104CA070030A2371030CA371030E237233
:1027D000A1720B0A23730B0CA3730B0E2374A27448
:1027E000130A2375130CA375130E237610BD000076
:1027F000001002406C01002020060020000401406F
:10280000E8F7FF1F55000020704700BFFEE700BF3C
:10281000FEE700BFFEE700BFFEE770477047704766
:1028200070477047704770477047704770477047F0
:1028300070477047704770477047704770477047E0
:10284000704710B500F02CF810BD70477047704706
:1028500070477047704770477047704770477047C0
:102860007047704770477047704770470B48006863
:1028700040F48020094908607047704770477047EE
:102880007047704770477047704770477047704790
:102890007047704770477047704770471404014095
:1028A00010B541480068414908800846008800F496
:1028B00080603F490988084206D04FF6FF303A4908
:1028C00008603C49486880473848008800F4005058
:1028D00037490988084203D04DF6FF703249086035
:1028E0003248008800F4805031490988084206D0F7
:1028F0004EF6FF702C490860002000F0A6FA2B4825
:10290000008800F400602A49098808420CD02A484F
:10291000007810B100F079FA02E0022000F095FA98
:102920004FF2FF70204908602048008800F40070D2
:102930001F490988084208D04FF6FF501A4908601D
:102940001E480078401C1D4908701848008800F493
:10295000807017490988084206D04FF6FF60124977
:102960000860072000F071FA1048008800F4004069
:102970000F490988084201D0FFF7F6F810BD002082
:102980000F490870704700200E490870704710B555
:102990000120FFF7A2FB10BD10B500F02BFB10BD0E
:1029A00010B500F0D7FC10BD445C0040AE00002024
:1029B0004A000020B80000207001002070000020B4
:1029C000AC000020AD00002010B5FFF7F1FE0020A4
:1029D000E5490968887200F0EDF90020E3490860D4
:1029E0004FF43F40E249088008460088DF49091F4C
:1029F00008600020DF49086010BD10B50020DA49EA
:102A000009688872D8490968C872DB48C079D64914
:102A1000096848720020FFF7C9FA4FF400710020DE
:102A2000FFF7DCFA10210020FFF7EDFA2821002043
:102A3000FFF74FFC68210020FFF73EFC0020FFF766
:102A400077FBCE4890F82C100020FFF790FC002078
:102A5000FFF743FB4FF4C0610120FFF7BFFAA82145
:102A60000120FFF729FC08210120FFF759FC202154
:102A70000120FFF7C8FAE8210120FFF72AFC022114
:102A80000120FFF774FC4FF440510120FFF7D3FA07
:102A90004FF4C0610220FFF7A1FAF8210220FFF7EE
:102AA0000BFC05210220FFF73BFC20210220FFF751
:102AB000AAFA00210320FFF791FA4FF4A471032032
:102AC000FFF7FAFB20210320FFF79DFA00210320E6
:102AD000FFF7B1FA00210420FFF780FA4FF4C0712C
:102AE0000420FFF7F6FBA54890F82C100420FFF710
:102AF0003EFC4FF440510420FFF79DFA00210420D2
:102B0000FFF781FA9D4890F82C100020FFF72FFC6A
:102B10000020FFF7E2FA0020FEF781FF012095492F
:102B2000086097489749086000209749087010BDD1
:102B300010B58D480068807A58B105208D4908602D
:102B40000320FFF78FFB0420FFF777FB00208E495F
:102B5000087010BD042087490860704770477047AF
:102B6000014629B90120804A12681082002070476E
:102B70008648FCE7014629B901207B4A1268108289
:102B8000002070478248FCE710B504468149204682
:102B9000FEF731FC10BD10B504467F492046FEF714
:102BA0002AFC10BD10B5044601207C4908707C4900
:102BB0002046FEF720FC10BD10B50446794920469A
:102BC000FEF719FC10BD70B504460025062C29D16E
:102BD00065480068007800F07F00012822D1624833
:102BE0000068407902281DDA5F4800688078222852
:102BF00009D15D480068407910B9AFF2430538E06B
:102C0000AFF25F0535E0584800688078212830D160
:102C100055480068407910B9AFF2850529E0AFF258
:102C2000970526E050480068007800F07F002128D2
:102C300004D1032C02D1AFF2C3051AE04A48006860
:102C4000007800F07F00212811D1FE2C0FD14648DA
:102C50000068408858B944480068808838B94248BC
:102C60000068C088012802D1AFF20B1501E00220F4
:102C700070BD0DB90220FBE73B480068856100216B
:102C80003948006841820020A8470020F0E7364814
:102C90000068C1783E4801600020704710B50446C6
:102CA00031480068007800F07F00212804D10B2C07
:102CB00002D1FFF7ECFF10BD2B480068007800F050
:102CC0007F0021281AD1FF2C18D12748006840889E
:102CD000A0B925480068808880B923480068C0886A
:102CE00060B90320FFF7BEFA0420FFF7A6FA2448D4
:102CF00024490860002024490870DCE70220DAE754
:102D000010B5044628492046FEF775FB10BD10B5E6
:102D1000044626492046FEF76EFB10BD70B50546F9
:102D200011480068C478042C01DD002070BD2048E3
:102D300000EBC4012846FEF75EFBF7E702460029D8
:102D400001DD02207047022A01DD0220FAE700209F
:102D5000F8E710B50B4800680949884202D0022004
:102D600000F086F910BD000040000020445C0040E7
:102D70004A0000206C01002090420008B8000020AA
:102D8000555342437C06002088010020B0000020FB
:102D9000680100203401002024010020640100208B
:102DA0002C0100201C0100200C0100201401002037
:102DB0003C01002010B5FFF781FC0120FFF78BFCE0
:102DC00001244C48046000204B49088008460088D4
:102DD000484908600020091D08604FF4E05046494A
:102DE00008800846008843490860002010BD10B5DF
:102DF0000120404908600020091D0860FFF76BFCB6
:102E000003203C490860002010BD10B53948006817
:102E100084B244F0080437480460006884B244F087
:102E2000040434480460FFF771FC10BD10B531484C
:102E3000006884B224F004042E480460FFF76AFCA2
:102E40004FF43F402B49086010BD70B50546072D73
:102E500001D02A48057029480078082841D2DFE8C7
:102E600000F0040A1016212E4142FFF7DFFF062072
:102E7000224908703BE0FFF7D9FF04201F49087082
:102E800035E002201D494870032008702FE01B48E0
:102E90004078401E194948700846407808B9042017
:102EA000087024E01348006884B244F0100411480C
:102EB00004600520114908700A20487017E00F4887
:102EC0004078401E0D4948700846407840B909488E
:102ED000006884B224F010040648046006200870DC
:102EE00005E000BF00BF06200449087000BF00BF16
:102EF00070BD0000405C00404A00002071010020CD
:102F00000146002211B1012902D100E002E001E0F6
:102F10000120704700BF1046FBE72DE9F04106464F
:102F20000F4690461D4616B1012E0ED106E06A12DC
:102F3000790A4046FEF72EF8044609E000242A46A6
:102F400039464046FEF709F802E00120BDE8F0816D
:102F500000BF0CB10120F9E70020F7E72DE9F041AF
:102F600006460F4690461D4616B1012E0ED106E0CC
:102F70006A12790A4046FDF7F1FF044609E0002491
:102F80002A4639464046FDF7E7FF02E00120BDE84A
:102F9000F08100BF0CB10120F9E70020F7E70146FE
:102FA00021B1012904D0022906D103E00020704795
:102FB0000020FCE70120FAE70120F8E770B505469C
:102FC0000C46FC48FC490860084605730D224FF486
:102FD000A471FEF79FFF0D210320FFF7A1F9052043
:102FE000F64908702CB10420087030210320FFF747
:102FF0000AF870BD10B5F248007840F01000F049B2
:103000000870EE480078022810D0032823D0042846
:1030100002D0052829D100E000BF0020E749087050
:103020004FF440510420FFF706F81FE0E548C07B4D
:1030300028280ED1E248007840F00200E0490870EC
:10304000E049487BE0490A68E049096800F00BFB69
:1030500000BF00BF0AE001210020FFF7AFFF4FF4DF
:1030600040510420FEF7E7FF00E000BF00BF10BDA5
:1030700010B5044624B1012C07D0022C15D10AE06A
:1030800010210320FEF7BFFF10E04FF48051042011
:10309000FEF7D1FF0AE010210320FEF7B4FF4FF442
:1030A00080510420FEF7C7FF00E000BF00BF10BD45
:1030B00010B5002404E0C648005DC2490855641CF0
:1030C000C44800888442F6D3BE484068BA49486084
:1030D000BC4880688860BF4800881F280FD0022045
:1030E000FFF7C6FF0020B7490860487B1A22052178
:1030F00000F0D1F900210120FFF760FF10BDB148B9
:10310000C07B282803D0AF48C07B2A2816D1AD4801
:10311000407C0106AB48807C41EA0041A948C07C64
:1031200041EA0020A749097D0843A8490860A5484D
:10313000C17D807D41EA0020A3490860A148006864
:10314000A54988426FD19F48407BA44909688842BD
:1031500007D89C48807B012803DB9A48807B102895
:103160000DDD0220FFF784FF9649487B24220521CC
:1031700000F091F900210120FFF720FFE8E09148DD
:10318000C07B25285FD01BDC15286FD00EDC0828FB
:103190006DD006DC00285BD0032830D0042867D12E
:1031A00076E00A2873D01228F9D12DE01A380A28BF
:1031B0005ED2DFE800F0392EB17D33B1B1B1B14359
:1031C0008A286FD00EDC552867D006DC282844D02A
:1031D0002A284ED02F28E2D154E05A2829D0882816
:1031E000DDD176E0A8286DD004DC8F286FD09E2832
:1031F000D5D173E0AA287BD0AF28D0D182E0714925
:10320000487B00F0DBF995E06E49487B00F028F937
:1032100090E06C49487B00F0E0F98BE06949487B1D
:1032200000F0DBF986E086E06649487B00F0B8F9FB
:1032300080E06449487B00F0BAF97BE06149487B53
:1032400000F02DF976E05F49487B00F064F971E009
:103250005C49487B00F0AAFA6CE05A49487B5A491D
:103260000A685A49096800F0FEF963E01BE024E0AF
:1032700052E05449487B54490A685449096800F0AF
:1032800029FA57E04F49487B00F05BFA52E02AE008
:103290004C49487B00F0A4FA4CE04A49487B00F0D6
:1032A000B5FA47E029E04749487B00F0AFFA41E032
:1032B0004449487B00F0AAFA3CE04249487B00F0D0
:1032C000A5FA37E03F49487B00F0A0FA32E01EE063
:1032D0000EE03C49487B00F099FA2BE03949487BE5
:1032E00000F094FA26E03749487B00F08FFA21E09D
:1032F0003449487B00F08AFA1CE03249487B00F0F0
:1033000085FA17E02F49487B00F080FA12E02D493A
:10331000487B00F07BFA0DE00220FFF7A9FE294967
:10332000487B2022052100F0B6F800210120FFF79C
:1033300045FE00BF0CE00220FFF79AFE2149487BC2
:103340002022052100F0A7F800210120FFF736FE1A
:1033500000BFD3E610B51A48007840F010001849B5
:1033600008701848C47B0420FFF730F8194908801A
:10337000084602884FF4C0711548FEF7E5FD0F4876
:10338000007810B1012839D102E0FFF791FE43E047
:103390002A2C25D10A48007840F00100084908701D
:1033A0000849487B08490A680849096800F092F909
:1033B00032E00000555342539C0600208801002053
:1033C0009D0100207C060020900100208C0100203F
:1033D0003C0600208A01002055534243B0000020E3
:1033E0000120FFF745FE1B49487B2422052100F000
:1033F00052F800210220FFF7E1FD0DE00220FFF767
:1034000037FE1449487B2422052100F044F80021AE
:103410000220FFF7D3FD00BF00BF10BD70B5054609
:103420000C4622464FF4A4712846FEF773FD214650
:103430000320FEF775FF30210320FEF7E4FD032093
:103440000549087005488068001B04498860002011
:10345000087370BD7C060020880100209C060020B7
:1034600070B50646F948007C10F0010F02D0F84C08
:1034700005250BE00EB9F74C00E0F74CF348C07C93
:10348000242802DCF148C57C00E02425294620469A
:10349000FFF7C4FF70BDF14B99701A73704710B5F8
:1034A00004462046FFF77BFD68B1E849487B3A2295
:1034B0000221FFF7F0FF01210846FFF77FFD002002
:1034C000FFF7D6FD10BDE64850F82400000EE54990
:1034D0000871E34850F82400000C4871E04830F8C7
:1034E0002400000A8871DE4810F82400C871DE4804
:1034F00050F82400000C4872DB4830F82400000A21
:103500008872D94810F82400C8720C21D548FFF7FA
:1035100085FF00BFD6E710B504462046FFF73FFD04
:1035200068B1CA49487B3A220221FFF7B4FF012162
:103530000846FFF743FD0020FFF79AFD10BDC8487D
:1035400050F82400401E000EC8490870C44850F8C6
:103550002400401E000C4870C14830F82400401E72
:10356000000A8870BE4810F82400401EC870BE488B
:1035700050F82400000E0871BB4850F82400000CDD
:103580004871B94830F82400000A8871B64810F82C
:103590002400C8710821B548FFF740FF00BFCDE700
:1035A00010B504460421B248FFF738FF10BD10B52E
:1035B00004460821AF48FFF731FF10BD70B505463E
:1035C000A248C07C122802DCA048C47C00E012247F
:1035D0002146A248FFF722FF70BD10B50446012125
:1035E0000020FFF7EBFC10BD2DE9F04104460D462D
:1035F00017461E46B8199A4951F82410884213D923
:103600002A2D02D10220FFF733FD0020FFF730FD05
:10361000212205212046FFF73EFF00210120FFF770
:10362000CDFC0020BDE8F081884881688E4850F8C4
:1036300024007043814214D02A2D03D10220FFF7C9
:1036400017FD02E00020FFF713FD8049487B24228C
:103650000521FFF720FF00210120FFF7AFFC00202C
:10366000E0E70120DEE770B506460C4615468248C5
:10367000007820BB7549487B2B4622462821FFF75E
:10368000B3FF00B970BD7148007B10F0800F08D007
:103690000220794908702A462146304600F0EEF8AB
:1036A0000CE00220FFF7E4FC6849487B2422052156
:1036B000FFF7F1FE01210846FFF780FCE2E76E48C4
:1036C0000078022804D12A462146304600F0D6F878
:1036D00000BFD7E770B506460C4615466648007829
:1036E00020BB5A49487B2B4622462A21FFF77CFF04
:1036F00000B970BD5548007B10F0800F08D1012043
:103700005D4908704FF440510420FEF794FC0CE032
:103710000020FFF7ADFC4D49487B24220521FFF72F
:10372000BAFE00210120FFF749FCE2E75248007889
:10373000012804D12A462146304600F01BF900BF7B
:10374000D7E710B504464148806848B93F48007C37
:1037500010F0040F04D101210020FFF72FFC0CE032
:103760000220FFF785FC3949487B24220521FFF719
:1037700092FE00210120FFF721FC10BD10B5044688
:103780003248806868B10220FFF772FC2F49487BFD
:1037900020220521FFF77FFE00210120FFF70EFC0C
:1037A00003E001210020FFF709FC10BD10B504461D
:1037B0002046FFF7F4FB68B12449487B3A220221F6
:1037C000FFF769FE01210846FFF7F8FB0020FFF72D
:1037D0004FFC10BD01210020FFF7F0FB00BFF8E710
:1037E00010B504462046FFF7DAFB68B11749487B5D
:1037F0003A220221FFF74FFE01210846FFF7DEFBC8
:103800000020FFF735FC10BD00BFFCE710B50446F3
:103810000E48806818B90020FFF72AFC0BE00B481F
:10382000007B10F0800F03D00020FFF721FC02E0A6
:103830000220FFF71DFC0549487B20220521FFF7E8
:103840002AFE00210120FFF7B9FB10BD7C060020F5
:10385000B8010020BD010020E2010020120200207A
:10386000840100202C02002080010020240200207E
:10387000060200200A020020880100202DE9F04104
:1038800004460D4616467E48007870B97D4850F8CB
:10389000240068437C4908607A4850F8240070434B
:1038A0007A49086001207649087075480078012837
:1038B0004ED17748006808BB724830F8240083B2C4
:1038C000744A714801682046FFF748FBC7B22FB120
:1038D0007148007840F008006F49087040224FF4AA
:1038E000A4716C48FEF716FB664850F82400403877
:1038F0006749086040206949086012E06549674AE5
:103900001268881840224FF4A471FEF703FB604848
:10391000006840385E4908606048006840305F4990
:10392000086040210320FEF7FBFC30210320FEF756
:103930006AFB5548006840305349086053480068A6
:103940004038524908605648806840385449886079
:103950004E48006860B900204D4908604F49086032
:103960004949086003204F49087000204449087005
:10397000BDE8F0812DE9F04104460D4616464A485F
:10398000006800F140083E48007870B93D4850F8A2
:1039900024006843454908603A4850F824007043C1
:1039A00043490860012036490870354800780128ED
:1039B00054D100203F49086010E03E48016800688B
:1039C000401C3C4A10603C48415C3248364A126810
:1039D000815435480068401C33490860324800680B
:1039E0004045EAD3314800683449098808442F49E2
:1039F00008602F48006831490988401A2C4908603E
:103A0000204850F824000968B1FBF0F200FB1210C6
:103A1000C0B90020244908601A4830F8240083B255
:103A2000184850F82400214A1268111A194A2046F1
:103A3000FFF773FAC7B22FB11748007840F00400BF
:103A400015490870164880681C490988401A1449AD
:103A500088604FF440510420FEF7EDFA14480068E6
:103A600018B110480078042808D100200E490860D9
:103A70000121FFF7A3FA002001490870BDE8F08199
:103A80009C01002080010020A0010020A401002052
:103A900094010020AC0600209D010020B001002010
:103AA0009C0600208801002098010020A801002029
:103AB000AC010020B40100203C0600208A01002057
:103AC000704700000FB4044910B503AA029800F033
:103AD000D5F810BC5DF814FB040000202DE9F0417E
:103AE0000E460446002020622046E168884730B335
:103AF000252805D0D4E901219047206A401CF2E72F
:103B0000E168204600278847050018D0A5F141004C
:103B1000192802D820354FF400673246294620463E
:103B20002760FCF73DFB40B1012804D0F61D26F0CC
:103B300007060836D8E7361DD6E72846DAE7206AB2
:103B4000BDE8F0812DE9F041064600241068752992
:103B5000314616A511D0AFF30080002803DAC0F17A
:103B6000000013A507E031688A0701D511A502E01E
:103B7000490704D510A5012401E0AFF3008000211E
:103B80000A2306F1240707E0B0FBF3F203FB12005F
:103B9000303078541046491C0028F5D123462A4677
:103BA0003046BDE8F04100F00DB800000000000014
:103BB0002D0000002B00000020000000704770471F
:103BC000704770472DE9F0470D46994692460446E6
:103BD00000F124080168880604D5E06921F010018D
:103BE000216000E00120A84202DDA0EB050700E013
:103BF0000027A16907EB050202EB0900A1EB000019
:103C0000A0612078C00602D42046AFF300800026D1
:103C100008E0D4E901211AF806009047206A401C08
:103C2000761C20624E45F4DB2078C0060AD520467B
:103C3000AFF3008006E0D4E9012130209047206AEC
:103C4000401C2062381EA7F10107F4DC07E0D4E92C
:103C5000012118F805009047206A401C2062281EA8
:103C6000A5F10105F3DC2046AFF3008020780006C3
:103C700002D50220BDE8F0870120FBE7074B70B5B5
:103C80000D467B4400F011F80446284600F020F869
:103C900010B14FF0FF3070BD204670BD59CAFFFF14
:103CA00001694A1C02610878704700B58FB0CDE900
:103CB00001310021059105497944CDE903101146F0
:103CC0006846FFF70BFF0FB000BD0000E5FFFFFFE8
:103CD000007B00F080007047754600F029F8AE4682
:103CE00005006946534620F00700854618B020B508
:103CF000FCF77CFABDE820404FF000064FF00007CB
:103D00004FF000084FF0000B21F00701AC46ACE883
:103D1000C009ACE8C009ACE8C009ACE8C0098D46F0
:103D200070470446AFF300802046FCF74BFA0000D2
:103D300000487047AC08002090EA010F48BF81F0AE
:103D4000004100F12E82421A3CBF801A89184FEAC6
:103D5000D0524FF07F4C1CEA410FA2EBD15318BF59
:103D60009CEA026F00F03B804FF0004C4CEA0020D0
:103D70004CEA012121FA03FC10EB0C0C1ED202F1DB
:103D8000FF325FEA1C2040EBC25038BF70471CF086
:103D90007F0F4FEA400C18BFBCF17F4F38BF704710
:103DA000C3F12003994008BF20F00100BCF17F4F10
:103DB00038BF7047A0F1C04000F0DDB94FEA3C00C9
:103DC000000A40EBC25028BF1CF0FF0F4FEA400C26
:103DD000E6D018BFBCF17F4F38BF7047EAE79CEAD6
:103DE000026F05D010EA5C0F08BF00F0004070477A
:103DF00010B500F07AF900BF64FBBE3E4FF47F0CB3
:103E00001CEAD0121EBF1CEAD11392EA0C0F93EAEF
:103E10000C0F00F0858090EA010F48BF42F48072D9
:103E200040F4000C41F400002CF07F4120F07F4072
:103E300000B58142A2EB03020FF2081CACEB504E1E
:103E4000C0F100009EF800E04FEA4E0E00FB0EFCB1
:103E500038BF49004FEA2C1C02F5FA020CFB0EF3A6
:103E60004FEACE1E4FEA112C4FEAC1210EEB635EE2
:103E700042EB22420EFB0CFC4FEA1C5300FB0311E9
:103E80004FEA112C4FEA01310EFB0CFC4FEADC4CDF
:103E900000FB0C11C14228BF09184CEB03335DF83D
:103EA00004EB10EB410143EBC250B2F57C0F38BF7D
:103EB000704729D512F0F00F1CBF00F1C04000F090
:103EC00000407047008182838485868788898B8C37
:103ED0008D8E8F919293959697999A9C9D9FA0A273
:103EE000A3A5A7A8AAACAEB0B2B3B5B7B9BCBEC0C3
:103EF000C2C5C7C9CCCED1D4D7D9DCDFE2E6E9EC64
:103F0000F0F3F7FAFE0000004FEA400C0CF1807C61
:103F1000BCF17E4F28BF7047B0F1C04000F02BB914
:103F200090EA010F0CEAD11348BF42F48072624557
:103F300038BF634507D213F47F0F16D080EA010023
:103F400000F00040704710B500F0CFF8097EFC3E4D
:103F500000F005B880EA010000F00040704780EAF8
:103F6000010000F0004000F006B912F47F0F04BF1A
:103F70000248704780EA010000F0FDB80000C07FF1
:103F8000C10DD1F19E0206DB4FEA002343F000434E
:103F900023FA02F07047004207D54FEA4001B1F121
:103FA000FE4F02D24FF00000704710B500F09DF8B0
:103FB00049922480002070476FEA2000704700007B
:103FC000B0FA80F310FA03F2C3F19D030AD0D905C9
:103FD00001EB1220530638BF704700F1010008BF03
:103FE00020F00100704700004FF47F0C1CEAD01253
:103FF0001EBF1CEAD11392EA0C0F93EA0C0F00F0DB
:10400000478090EA010F48BF42F480724FF0004CA5
:104010004CEA00204CEA012102EB0302A0FB011351
:10402000A2F50002002918BF43F001035B0028BF7E
:104030004FEA330342EB22425FEA132C4CEBC250AF
:104040002EBFBCEB436FB2F57C0F70474FEA036C99
:10405000BCF1004F08BF20F00100B2F57C0F38BF63
:1040600070470BD582F0FF0212F5803FC8BF704742
:1040700000F1C040D8BF00F00040704700F5000CD0
:104080005FEA4C0C48BF7047B0F1C04000F073B815
:1040900090EA010F0CEAD11348BF42F480726245E6
:1040A00038BF634504D280EA010000F00040704749
:1040B00010B500F01AF800BF8900013E00F007B803
:1040C00000F009B85FEA410C5FEA1C6C08D080EA96
:1040D000010000F050B85FEA400C5FEA1C6CF6D1BA
:1040E0004FF00040A0F5800070470EF1020E2EF058
:1040F000030E5EF8044B244204D44FEA4102B2F1AD
:104100007F4F11D84FEA4003B3F17F4F0CD80ED147
:104110004FEAD07CB2F17F4F0CEB4C0C0CF1020C4F
:1041200008BF4CEBD17C04E04FF0080C01E04FEAF3
:10413000D17C0CEB4C0324FA03F404F00704B4F133
:10414000040C06D20EEB840CBDE810404CF0010CC0
:104150006047DFE80CF0070802024FF00040A0F5CE
:10416000800010BD0846420018BFD2F1807288BF9F
:1041700000F0004010BDFF2141EAD050C00570475B
:1041800080F0004090EA010F7FF5DDAD81F0004145
:1041900000F007B890EA010F48BF81F000413FF5F9
:1041A000D2AD421A04D882F00042A0EB02001144C2
:1041B0004FEAD0524FF07F4C1CEA410FA2EBD15393
:1041C00018BF9CEA026F4AD04FF0004C4CEA002026
:1041D0004CEA012121FA03FCB0EB0C0C0FD412F0D5
:1041E000FE0F36D05FEA4C001DD5001240EBC250E6
:1041F00038BF70471CF03F0F18BF70470BE0A2F1AB
:1042000001025FEA1C2040EBC25038BF70471CF02F
:104210007F0F18BF7047C3F12003994014BF401EA1
:1042200020F00100704780084FEA122308BF704752
:10423000B0FA80FCA2EB0C02CCF1280C60FA0CF076
:1042400093EA122F04BF00EBC25070474FEAC370CD
:104250007047130A5FEADC1008BF7047F6E79CEA74
:10426000026F04D010EA5C0F08BF0020704710B541
:10427000FFF73BFF40DFF63E81F000407047120140
:1042800000020000004083045057000201020301B5
:1042900009025900030100803209040000020301F1
:1042A0000100092110012101223F000705810310AF
:1042B000000A0705010310000A09040100010301B7
:1042C0000200092110012101223600070582034066
:1042D000000A090402000208065004070583024090
:1042E00000000705040240000005010906A10105C0
:1042F0000719E029E7150025017501950881029548
:1043000001750881039505750105081901290591B5
:10431000029501750391039506750815002565053D
:1043200007190029658100C005010902A101850165
:104330000901A100050919012903150025019503AB
:104340007501810295017505810305010930093167
:1043500009381581257F750895038106C0C00403BF
:1043600009042603530054004D00690063007200E5
:104370006F0065006C0065006300740072006F00E0
:104380006E006900630073001E03530054004D006B
:104390003300320020004A006F007900730074007F
:1043A000690063006B000000C843000800000020A3
:1043B00038020000280100089C4400083802002050
:1043C000D808000084010008C1024802141A0353EF
:1043D0001254124D123312321231021030137F294F
:1043E0001B0887041A9904CB031B049A8F14DAA1C3
:1043F00020812305011AC91C1AFB04135D2B1B081D
:104400005F041AC704139D2C14083D2D1B080104DA
:104410001A0F041A1D0441324029401A3124A950B0
:104420001A5320690C1A551C137E423308121A9035
:104430000832591AE908323F1AA2083209132843F0
:104440003308365AC2101A5E1032041A6208322635
:104450001A8808321E22559B201A08C119BB014B2D
:104460003580020221281E414C49454E54454B20BF
:10447000534420466C617368204469736B2020208C
:10448000312E302025BA2025AB504926292442035D
:0C4490006206627002150A420832020047
:04000005080000ED02
:00000001FF
