:020000040800F2
:10000000781D0020E5010008E9010008EB01000867
:10001000ED010008EF010008F101000800000000F8
:10002000000000000000000000000000F3010008D4
:10003000F501000800000000F7010008F9010008C0
:10004000FB010008CB340008CD340008FB01000898
:10005000CF340008D1340008FB010008FB01000880
:10006000D3340008D5340008D7340008FB01000859
:10007000FB010008FB010008FB010008FB01000870
:10008000FB010008FB010008FB010008E93400083F
:10009000EB340008F3340008F5340008FB010008D5
:1000A000F7340008F9340008FB340008FD34000878
:1000B000FF340008FB010008013500080335000883
:1000C000053500080735000809350008FB01000860
:1000D0000B350008D31B00080D3500080F3500084C
:1000E00011350008133500081535000800F002F836
:1000F00000F062F80AA090E8000C82448344AAF160
:100100000107DA4501D100F057F8AFF2090EBAE85D
:100110000F0013F0010F18BFFB1A43F0010318473B
:10012000CC4F0000EC4F00000A444FF0000C10F8D8
:10013000013B13F0070408BF10F8014B1D1108BF65
:1001400010F8015B641E05D010F8016B641E01F805
:10015000016BF9D113F0080F1EBF10F8014BAD1C55
:100160000C1B09D16D1E58BF01F801CBFAD505E073
:1001700014F8016B01F8016B6D1EF9D59142D6D3CD
:10018000704700000023002400250026103A28BFF5
:1001900078C1FBD8520728BF30C148BF0B607047F9
:1001A000642904F03183782904F06A8300207047C1
:1001B0001FB51FBD10B510BD04F01CFC1146FFF7A4
:1001C000F7FF00F029F804F03AFC03B4FFF7F2FF60
:1001D00003BC00F019FD000030BF000071B670478D
:1001E00061B6704708480047FEE7FEE7FEE7FEE716
:1001F000FEE7FEE7FEE7FEE7FEE7FEE70348044909
:10020000024A044B70470000ED000008781B0020F4
:10021000781D0020781B0020092000F09AFC48205F
:1002200000F02CFB4FF47A31482000F0FDFC012057
:1002300000F07AFCC82000F03DFB01F0DCF80AE099
:1002400001F0AAF8044621461DA004F09DFA4FF4DF
:10025000FA7000F02FFB01F09FF84EF614718842FF
:10026000EED103F09BF803F0B4F802F069FA4FF412
:10027000FA7000F01FFB4FF4FA100021134A03C27A
:100280004FF40070124908604FF47A601149086019
:1002900000F07EF813E000F0B5F900240DE00E4800
:1002A000007828B100200C4908700C4801F061F872
:1002B000642000F01BFB601CC4B2642CEFDBEAE797
:1002C0006572726F7225580D0A000000E00100206F
:1002D000E8010020EC0100208C000020E615002041
:1002E0000FB583B000208DF800009DF80C009DF83C
:1002F0000E1000EB41009DF80D1000EB81009DF801
:100300000F1000EBC1009DF8101000EB01109DF8DC
:10031000121000EB41109DF8111000EB81109DF8B8
:10032000131000EBC110C0B28DF8010000208DF851
:10033000020000BF06E005A90A5CC11C0DF80120FF
:10034000411CC8B20628F6DB684601F012F807B077
:1003500000BD10B50446A4F14100072813D2DFE820
:1003600000F00406080A0C0E1000FE4810BDFE48FE
:10037000FCE7FE48FAE7FE48F8E7FE48F6E7FE48E5
:10038000F4E7FE48F2E7FEA004F0FEF9F548EDE7D9
:100390002DE9F04140F2022000F0BAFC40F20320C7
:1003A00000F0B6FC4FF4017000F0B2FC40F2052002
:1003B00000F0AEFC002400262CE006EB4600F449D9
:1003C00001EB8007F349085DFFF7C3FF3860601C4D
:1003D000C4B2F049081900F0BEFC05462846E917EA
:1003E00005EB5171C910A5EBC1018A0001219140B3
:1003F00079603D72387A092801DD601CC4B2601C46
:10040000C4B20A2000F056FA0A2000F053FA701C19
:10041000C6B200BF202CD0D30026002426E006EB75
:100420004600DD4901EB8007DC49085DFFF791FFDD
:100430003860601CC4B2D949081900F08CFC05462C
:100440002846E91705EB5171C910A5EBC1018A00D7
:100450000121914079603D72387A092801DD601CE4
:10046000C4B2601CC4B2701CC6B200BF0A2CD6D382
:10047000002433E004EB4403C54D05EB83035A68C5
:1004800004EB440305EB83031B7A072B01DD0123F7
:1004900000E00023194604EB4403BD4D55F823004A
:1004A000082300F09AFC04EB4400294651F8200090
:1004B000C06804EB44012A4602EB81010A7A01215B
:1004C0009140084304EB44012A4652F82110C860C9
:1004D0004FF6FF70A549C860601CC4B20E2CC9DB82
:1004E00000242FE004EB4403AB4D05EB83035A6873
:1004F00004EB440305EB83031B7A072B01DD012387
:1005000000E00023194604EB4403A34D55F82300F3
:10051000032300F062FC04EB4400294651F820005C
:10052000C06804EB44012A4602EB81010A7A0121EA
:100530009140084304EB44012A4652F82110C86058
:10054000601CC4B2052CCDDBBDE8F08110B50446BB
:10055000204600F000FC012101FA00F010BD1FB59B
:1005600082B09DF808009DF80A1000EB41009DF84C
:10057000091000EB81009DF80B1000EBC1009DF805
:100580000C1000EB01109DF80E1000EB41109DF8CF
:100590000D1000EB81109DF80F1000EBC110C0B2E0
:1005A0008DF8000000208DF8010000BF06E004A9CE
:1005B0000A5C811C0DF80120411CC8B20628F6DB3C
:1005C0000024002009E01DF80010754A125C9142D9
:1005D00001D0012403E0411CC8B20828F3DB00BFAE
:1005E00074B1002005E01DF800106D4A1154411C43
:1005F000C8B20828F7DB03220821684601F035FA63
:1006000006B010BD2DE9FF410025002400BF1AE00F
:100610000020644921F8140004EB44005E4951F8BD
:100620002000C06804EB44015B4A02EB81010A7AB6
:1006300001219140084304EB4401574A52F821102C
:10064000C860601CC4B2052CE2DB002463E004EB4C
:100650004401514A52F82110C96804EB44024E4B40
:1006600003EB8202137A01229A404FF6FF739A1A23
:10067000114004EB4402484B53F82220D16000257E
:1006800025E005EB4502424B53F82220926805EB2A
:100690004503DFF8FCC00CEB830393F808C001238B
:1006A00003FA0CF31A400AB1012200E000221146BD
:1006B0003C4A32F81430002901DD012200E000221A
:1006C000AA401A44374B23F81420691CCDB20E2DD2
:1006D000D7DB4FF48040411E88B2324931F8141004
:1006E000411A304A22F8141004EB44012A4A52F805
:1006F0002110C96804EB4402274B03EB8202137AF2
:1007000001229A40114304EB4402234B53F8222068
:10071000D160601CC4B2052C99DB002401E0601C90
:10072000C4B2052CFBDB00260027002504E00021D5
:1007300002A84155681CC5B2062DF8DB00208DF8D3
:1007400001008DF800008DF802008DF803008DF88F
:1007500005008DF804008DF806008DF807000024D0
:1007600071E0000000080140000C01400010014051
:100770000014014000180140001C0140002001400D
:1007800077726F6E6720706F72742121210A0000EA
:10079000DC02002046000020A002002067000020AC
:1007A0007200002084030020002548E0304830F823
:1007B00014100120A8400140F1B3C4EBC4002D493E
:1007C00001EB4000405DE038072821D2DFE800F06F
:1007D0000804100C14181C0001208DF8020023E0FE
:1007E00001208DF800001FE001208DF803001BE0C0
:1007F00001208DF8010017E001208DF8040013E0BE
:1008000001208DF806000FE001208DF805000BE0B7
:10081000C4EBC400174901EB4000425D3046711C37
:10082000CEB202A90A5400BF00BF012012490870CD
:100830000127062E01D119E0FFE7681CC5B20E2D75
:10084000B4DB601CC4B2052CAEDB27B19DE80F0001
:10085000FFF785FE09E00848007830B1002006491E
:1008600008709DE80F00FFF77AFE00BFBDE8FF812A
:1008700084030020000000207A0000204FF0E021D7
:10088000096921F004014FF0E0221161C21700EB69
:100890005272C2F3C702234B1A701946097801EB52
:1008A0004102C2EBC1114FF6FF7202EAC1011E4ABA
:1008B0001180704701461C4A12884A434FF0E023DA
:1008C0005A6100229A6101221A6100BF4FF0E022B2
:1008D000106900F001021AB100F48032002AF5D04C
:1008E00000224FF0E0231A619A61704701460D4AD9
:1008F00012784A434FF0E0235A6100229A610122A4
:100900001A6100BF4FF0E022106900F001021AB135
:1009100000F48032002AF5D000224FF0E0231A6163
:100920009A6170477C0000207E000020AA4A0A409D
:100930000243AA4B1A6070470146072323EA0102CB
:100940001202A64B1B1D18684FF6FF031840A44B5C
:1009500018431043A14B1B1D186070472DE9F04749
:100960008046894614461D462046E11704EB9171E6
:10097000C1F3870AE11704EB91718910A4EB81019F
:10098000CFB2042000EBC700C7B22846FFF7D4FF60
:10099000C5F1040008FA00F60F20284100EA09001A
:1009A000064306F00F06202C09DA8E480168012064
:1009B000A04001434FF0E020C0F800110BE089484F
:1009C000001D0068A4F1200101228A4010434FF06D
:1009D000E021C1F80401844850F82A0006FA07F122
:1009E0000843814941F82A00BDE8F08770B5044604
:1009F0000B46CE1701EB9676C6F38700CE1701EBB8
:100A00009676B610A1EB8606B606350E774B9B6937
:100A100043F00103754EB3614FEAB63353F820300B
:100A20000F26AE40B343724E46F82030334653F89B
:100A3000203004FA05F61E436D4B43F820606D4BE1
:100A40001B6801268E4033436A4E336002F0010377
:100A500043B1684B0C331B6801268E403343654E0F
:100A60000C36336002F0020343B1624B08331E6858
:100A700001238B401E435F4B08331E6070BD00B5E1
:100A800000205A490861C86014204861002088612C
:100A9000C8610846006840F00100086008464068E8
:100AA0005549084051494860084600685349084084
:100AB0004E4908600846006820F480200860084617
:100AC000406820F4FE0048600020886000214FF05C
:100AD0000060FFF72BFF00BD10B5404808300068EC
:100AE00040F004003D49083108604048C06940F0CA
:100AF00080503E49C8614248406840F48070404997
:100B000048600846006840F0040008600846006835
:100B100040F002000860FFF75FFB10BD3048001D89
:100B20002E49091D08607047014649062F4A9269FF
:100B300042F001022D4B9A612D4A083A526822F088
:100B4000E0622B4B083B5A601A4652680A435A60CF
:100B5000704730B504460025FFF791FF2348006831
:100B600040F480302149086000BF20480068400CF4
:100B70000028FAD04FF480601C494860A01EC4B21F
:100B80000846406840EA844048600846406840F4AF
:100B9000803048601B48006840F032001949086006
:100BA0001248006840F080701049086000BF0F488C
:100BB0000068400E0028FAD00C48406840F002005F
:100BC0000A49486005E009484068C0F3870505F018
:100BD0000305022DF7D130BD80FFFF1F08ED00E0B7
:100BE0000000FA0500E100E000E400E0001002402F
:100BF00008000140000401400000FFF8FFFFF6FE7E
:100C00000070004000200240014600BF00207047F5
:100C100000BF3B4A128802F04002002AF9D0C2B25B
:100C2000374B1B1D1A8070472DE9F05F05460E46B5
:100C3000300104F053F88146324905FB01F004F01D
:100C40004DF88246494603F067FF0746384604F0F0
:100C500025F884B2204604F041F88346394604F072
:100C60001DF982464FF0834104F04CF8814604F0B0
:100C700015F880464FF6FF7000EA041404EB0800F4
:100C800084B22148806940F004001F498861084609
:100C9000806940F4804088611C48006820F47F60CF
:100CA0001A4908600846006840F40B60086016485E
:100CB000C06840F480401449C8600846C06820F409
:100CC0008040C8600E4808300480001D008842F251
:100CD0000C0108430A490C3108800846008840F49A
:100CE000807008800846008840F0200008800223B9
:100CF000252200210846FFF731FEBDE8F09F0000E5
:100D00000038014040420F0000100240040801403A
:100D100001460846CA1701EB1262121222B1012ADB
:100D200004D0022A12D109E000207047FD48C069B2
:100D300001228A401043FB4AD06109E0F9488069EA
:100D400001228A401043F74A906101E00020ECE75D
:100D500000BF0120E9E710B5014611B94FF0FF309F
:100D600010BD002300220878302802DB08783928DB
:100D70000ADD08782B2802D008782D2804D10878BD
:100D80002D2800D10123491C0DE00878302802DB12
:100D90000878392800DD09E011F8010B303802EB42
:100DA000820400EB440208780028EED100BF0BB1AA
:100DB0005042D5E71046D3E710B502460B46002057
:100DC000002100BF06E052F82140844201D952F8C8
:100DD0002100491C9942F6D310BD30B561B1446879
:100DE000C2EB0215C5F1FF352C404460446803FB9B
:100DF00002F52C4344600BE00468C2EB0215C5F118
:100E0000FF352C400460046803FB02F52C430460AA
:100E100030BD70B504460D46E8B2042322460021D9
:100E2000FFF79CFD70BDC0490880704770B504464F
:100E3000002504E04FF47A70FFF73CFD6D1CA542DD
:100E4000F8D370BD2DE9F04707460C461646984684
:100E50002046E11704EB9171C1F387052046E117A5
:100E600004EB91718910A4EB810189064FEA1169A5
:100E7000AC48806940F00100AA4988614FEAB1306E
:100E800050F825000F2101FA09F18843A74941F8DC
:100E90002500084650F82500A4490839791A02228D
:100EA000C2EB912101FA09F10843A04941F825005C
:100EB0009F4801680120A04001439D48016006F061
:100EC000010040B19A480C3001680120A040014364
:100ED00097480C30016006F0020040B19448083099
:100EE00000680121A1400843914908310860052CA0
:100EF00005DAA11DC8B24146FFF78BFF0AE00A2CB4
:100F000004DA41461720FFF784FF03E0414628201A
:100F1000FFF77FFFBDE8F0870246002105E0481C8F
:100F2000C1B2C82901DD002070478248008900F065
:100F300002000028F3D07F488281002105E0481C90
:100F4000C1B2C82901DD0020EEE77A48008900F02F
:100F500001000028F3D077488089C0B2E4E700B5EB
:100F600040F20220FFF7D4FE4FF40370FFF7D0FEEB
:100F70000B23714A00217148FFF72FFF01207049B0
:100F800008607049C1F89801C1F89C01694800885F
:100F9000684908800846008840F4007008800846C8
:100FA000008840F4807008800846008840F0040003
:100FB000088008460088088008460088088008469F
:100FC000008808800846008840F0380008800846FD
:100FD000008808800846008840F040000880FF2014
:100FE000FFF79AFF00BD0FB42DE9F0438DB0002646
:100FF000012717E1149810F806801498304490F8EF
:101000000190B8F1250F76D1B9F1630F74D006DCE9
:10101000B9F1480F62D0B9F1620F31D131E0B9F1C5
:10102000640F03D0B9F1680FF7D1AAE00024384665
:101030007F1C14A951F820501DB94349302003F0FA
:101040004BFC00240BE00A20B5FBF0F100FB115033
:1010500008A908550A20B5FBF0F5601CC4B2142C91
:1010600001DA002DEFD109E0611E08AA515C01F1FF
:101070003000354903F030FC601EC4B2002CF3DCB4
:10108000C5E0002538467F1C14A951F820401CB942
:101090002D49302003F020FC00250DE0204604EB14
:1010A000D0714910A4EB4101C9B20DF8051004EB51
:1010B000D0714C10681CC5B2142D01DA002CEDD192
:1010C00009E0691E1DF8011001F130001E4903F00E
:1010D00003FC681EC5B2002DF3DC98E000253846FD
:1010E0007F1C14A951F820401CB91749302003F087
:1010F000F3FB002510E08DE07FE02046E11704EBD4
:1011000011710911A4EB011108AA5155E11704EB63
:1011100011710C11681CC5B2142D01DA002CECD130
:101120002CE0000000100240044400400800014090
:10113000000401400030014000001011000801408F
:10114000940121420000214280000020681E08A96D
:10115000085C0A2808DA691E08AA515C01F130000F
:10116000574903F0B9FB07E0691E08AA515C01F179
:101170003700534903F0B0FB681EC5B2002DE5DC13
:1011800045E0002538467F1C14A951F820401CB9C1
:101190004B49302003F0A0FB00250EE02046E1176C
:1011A00004EB11710911A4EB011108AA5155E117C3
:1011B00004EB11710C11681CC5B2142D01DA002C5E
:1011C000ECD117E0681E08A9085C0A2808DA691E35
:1011D00008AA515C01F13000394903F07DFB07E0BA
:1011E000691E08AA515C01F15700354903F074FBF0
:1011F000681EC5B2002DE5DC09E038467F1C14A945
:1012000011F820402E49204603F066FB00BF00BFC6
:10121000761C04E02A49404603F05EFB00BF00BF95
:10122000761C00BF1498805D00287FF4E3AE0DB0FB
:10123000BDE8F0035DF814FB30B502460C46002112
:10124000002500230A2C10D107E003EB83004300A4
:10125000505C30380344491C6D1C505C0D2802D092
:10126000505C0A28F1D1184630BD40F6EA00FBE791
:1012700030B502460B4600211478002000BF07E07D
:1012800032F91150A54202DC12F811400846491CFF
:101290009942F5D330BD03460021012200BF07E08B
:1012A00003EA020008B1084670475200481CC1B268
:1012B0002029F5DBFF20F7E7014601208840704731
:1012C0008000002070470146704710B500F057FBC2
:1012D000032000F0A1FA40F20220FFF719FD0323DA
:1012E000012211461A48FFF778FD19480C300068B2
:1012F00040F4807016490C31086008235A06012119
:101300001348FFF76AFD12480C300068C0F30E0066
:101310000F490C31086010BD70B506460D461446E5
:101320004FF6FF7000EA44226902304600F0F0F800
:10133000002070BD70B506460D4614464FF6FF708E
:1013400000EA44226902304600F0A9F9002070BD8D
:101350000008014010B5044600BF0D480078002881
:10136000FBD101200A4908702146002002F053F801
:1013700010BD10B5044600BF064800780028FBD118
:101380000120044908702146002002F044F810BDF5
:101390000D0100200C01002010B5002400BFFC4806
:1013A00000684FF6EF710840F94908600846006888
:1013B00040F48070086000BF902000F0BDFA00206B
:1013C00000F0BAFA002000F0B7FA002000F0B4FAFA
:1013D000FF2000F0B1FA44EA0024FF2000F0ACFA4C
:1013E000044300BFEA48006840F01000E849086084
:1013F00000BF204610BD10B500F0C1FA40F2022037
:10140000FFF786FC03234FF480320021E0480C38BC
:10141000FFF7E3FC012000F0FFF9FFF7BDFFDD4916
:10142000088010BD10B5002400BFD94800684FF6F1
:10143000EF710840D64908600846006840F48070A3
:10144000086000BF052000F077FAFF2000F074FA72
:10145000044600BFCE48006840F01000CC49086048
:1014600000BF204610BD10B5044600BFC848006844
:101470004FF6EF710840C64908600846006840F41E
:101480008070086000BF012000F056FA204600F08E
:1014900053FA00BFBE48006840F01000BC49086025
:1014A00000BF10BD10B500BFB94800684FF6EF711E
:1014B0000840B74908600846006840F4807008603A
:1014C00000BF062000F038FA00BFB148006840F0C5
:1014D0001000AF49086000BF10BD10B500BFAC4898
:1014E00000684FF6EF710840A94908600846006897
:1014F00040F48070086000BF042000F01DFA00BFB7
:10150000A348006840F01000A149086000BF10BD6A
:101510002DE9F04106460C46174600BF9C4800687E
:101520004FF6EF7108409A4908600846006840F499
:101530008070086000BF032000F0FEF9C4F307408C
:1015400000F0FAF9C4F3072000F0F6F9E0B200F079
:10155000F3F9002505E0FF2000F0EEF97055681C56
:1015600085B2BD42F7DB00BF8948006840F010003B
:101570008749086000BFBDE8F08110B500BFFFF7E4
:1015800051FF00F001000028F9D110BD2DE9F04114
:1015900006460C461746FFF785FF00BF7C480068EB
:1015A0004FF6EF7108407A4908600846006840F439
:1015B0008070086000BF022000F0BEF9C4F307404D
:1015C00000F0BAF9C4F3072000F0B6F9E0B200F079
:1015D000B3F9002504E0705D00F0AEF9681C85B237
:1015E000BD42F8DB00BF6A48006840F0100068495F
:1015F000086000BFFFF7C1FFBDE8F0812DE9F041B1
:1016000007460E461446F0B2C0F58075AC4200DCC9
:10161000254612E02A4631463846FFF7B7FFAC426E
:1016200000D10BE02F442E44601B84B2B4F5807FC0
:1016300002DD4FF4807500E02546EBE700BFBDE812
:10164000F08110B504462403FFF72CFFFFF795FF48
:1016500000BF4F4800684FF6EF7108404C490860E2
:101660000846006840F48070086000BF202000F049
:1016700063F9C4F3074000F05FF9C4F3072000F0FA
:101680005BF9E0B200F058F900BF4148006840F053
:1016900010003F49086000BFFFF76FFF10BD2DE944
:1016A000F04781460F4616464FEA1738C7F30B0A34
:1016B000CAF58054A64200DC344644E04FEA0831C3
:1016C0004FF480523448FFF723FF002508E00AEB6F
:1016D00005003149085CFF2800D003E0681C85B292
:1016E000A542F4DB00BFA54216DA4046FFF7A9FF8A
:1016F000002507E019F8050005EB0A01264A5054B9
:10170000681C85B2A542F5DB4FEA08314FF48052E0
:101710002148FFF773FF04E0224639464846FFF7A9
:101720006DFFA64200D10FE008F101084FF0000A5A
:10173000A1442744301B86B2B6F5805F02DD4FF42A
:10174000805400E03446B9E700BFBDE8F08710B52B
:10175000FFF7A8FEFFF711FF00BF0D4800684FF626
:10176000EF7108400A4908600846006840F480703C
:10177000086000BFC72000F0DFF800BF0448006821
:1017800040F010000249086000BFFFF7F6FE10BDF0
:101790000C080140860000208E03002010B500BF19
:1017A0001C4800684FF6EF7108401A490860084667
:1017B000006840F48070086000BFB92000F0BCF8F9
:1017C00000BF1448006840F010001249086000BFD4
:1017D0000320FFF78BF810BD10B500BF0D4800685F
:1017E0004FF6EF7108400B4908600846006840F466
:1017F0008070086000BFAB2000F09EF800BF054875
:10180000006840F010000349086000BF0320FFF7A4
:101810006DF810BD0C080140894909884FF6C77260
:101820001140874A118018B911460988118017E0C4
:10183000012806D18249098841F01001804A1180AF
:101840000EE0022806D17E49098841F018017C4A41
:10185000118005E07A49098841F03801784A118001
:101860007749098841F04001754A1180704710B5E9
:101870007448806940F004007249886108468069B4
:1018800040F4805088610846806940F0010088611A
:101890000B234FF4801200216B48FFF79EFA0B23B5
:1018A0004FF0807200216848FFF797FA0B234FF042
:1018B000805200216448FFF790FA6448406820F0A5
:1018C0000100624948600846406840F001004860F5
:1018D00000205B4908800846008808800846008888
:1018E0000880084600880880084600880880084666
:1018F000008840F0020008800846008840F001009F
:101900000880084600880880084600880880084645
:10191000808840F04000888002232322002108466E
:10192000FFF71CF84648008840F040004449088012
:101930000320FFF771FF10BD0246002105E0481C9F
:10194000C1B2C82901DD002070473D48008900F080
:1019500002000028F3D03A488281002105E0481CAB
:10196000C1B2C82901DD0020EEE73548008900F04A
:1019700001000028F3D032488089C0B2E4E710B5F6
:101980003348007818B901203149087000E010BDD3
:101990002C48806940F004002A4988610846806923
:1019A00040F4805088610B234FF4801200212648B8
:1019B000FFF713FA0B234FF0807200212248FFF744
:1019C0000CFA0B234FF0805200211F48FFF705FA55
:1019D0001D480C30006840F0E0001B490C310860E5
:1019E00000201749088008460088088008460088BB
:1019F00040F4007008800846008840F48070088039
:101A00000846008840F004000880084600880880E6
:101A10000846008808800846008808800846008834
:101A200040F0380008800846008808800846008892
:101A300040F040000880FF20FFF77EFF00BFA6E7D0
:101A40000030014000100240000801400000014049
:101A50008800002000BF6649098801F04001002984
:101A6000F9D06349091D088070472DE9F041064609
:101A70000C4617465220FFF7EDFFC4F30720FFF78F
:101A8000E9FFE0B2FFF7E6FF3846FFF7E3FF002586
:101A900003E0705DFFF7DEFF6D1CA542F9D3BDE8E2
:101AA000F0812DE9F047044689461646FEF796FB7D
:101AB0008EB1042E34D100204E49087000BF04E0DE
:101AC000225C411C4B4B5A54C8B20828F8DB012059
:101AD0004949087024E094F8008000BF607800064F
:101AE000A17800EB0140E17800EB01202179471853
:101AF000A079617900EB012085B22A4639463FA0E2
:101B000002F042FE4FF6FF7000EA452279023F489C
:101B1000FFF7FEFC012251023C48FFF7A6FF00BF81
:101B200000BFFEF75DFBBDE8F08770B5044638489E
:101B3000007850B9532C4BD1012035490870002052
:101B4000344908603449086042E03148007801288F
:101B50003ED13048006840F25921884201D9881EA0
:101B600001E02C48006805462C4844552948006887
:101B700018B920022849086024E026480068012896
:101B800005D1254800682043234908601AE0214810
:101B9000016821480068801C814213D31D480168F8
:101BA0001D480068801C81420CD31C488678324650
:101BB000194801681948C01CFFF773FF0020144939
:101BC000087000BF13480068401C1249086000BF3D
:101BD00070BD10B50648008800F0200038B10448F8
:101BE000001D0088C4B22046FFF79FFF00BF10BD54
:101BF00000380140E61500208C0000206469736BFA
:101C0000202564202564200D0A0000008E1300208A
:101C10008D0000209000002094000020EF1500208F
:101C200010B504462CB90120F94909680882002042
:101C300010BDF849096808688047F54800680A300F
:101C4000F6E710B5F2480068C078F3494978884251
:101C500013DCEF480068807878B9ED480068808828
:101C600058B9EB480068C078E94909688872E949C1
:101C7000096848688047002010BD0220FCE710B5C5
:101C800004462CB90120E24909680882002010BDF1
:101C9000E049096888688047DD4800680C30F6E74D
:101CA00010B5DB4B1B68D978D94B1B685879DB4BD7
:101CB0001B689A6990470446D5480068807AE8B165
:101CC0003CB9D3480068007918B9D14800688078D9
:101CD00008B1022010BD8CB9CE490968C868804798
:101CE000CB4800684079CA490968C872C84800688A
:101CF000C078C749096808730020EBE70220E9E7CC
:101D000010B504462CB90220C14909680882002098
:101D100010BD0020C2490880BD480068007800F06E
:101D20007F00E0B9BA490968487A00F0200129B17A
:101D3000BB49097841F00201B94A117000F0400135
:101D400031B1B749097801F0FE01B54A117005E0DB
:101D5000B349097841F00101B14A11703AE0AC4849
:101D60000068007800F07F00012801D1AC48CFE77F
:101D7000A7480068007800F07F00022828D1A44A14
:101D80001268517901F00F0001F080027AB1A54B81
:101D900003EB8002D2F8002C02F03002102A16D198
:101DA0009F4A127842F001029D4B1A700FE09D4B42
:101DB00003EB8002D2F8002C02F44052B2F5805FAF
:101DC00005D1974A127842F00102954B1A7001E052
:101DD00000209DE78F49096808698047904897E788
:101DE0002DE9F0478A480068007800F07F08B8F1D4
:101DF000000F0AD186480068407A00F0DF0084496D
:101E0000096848720020BDE8F087B8F1020F7DD163
:101E10007F480068408818B97D480068007908B19B
:101E20000220F0E7DFF8F09179480068477927F061
:101E300080052C4676480068407900F0800038B173
:101E4000784901EB8400D0F8000C00F0300606E081
:101E5000744901EB8400D0F8000C00F4405699F866
:101E60000000A84204D91EB169480068807A08B908
:101E70000220C8E707F0800080B16A4901EB8400C6
:101E8000D0F8000C00F03000102843D1E0B201F08F
:101E900031F8E0B2302100F0DAFE3BE0614901EBBD
:101EA0008400D0F8000C00F44050B0F5805F31D1D0
:101EB000C4B95D4A92F82C10E0B201F0A6F8594A74
:101EC00002EB8401D1F8001C4BF68F7201EA02008C
:101ED00080F4805080F40050524A02EB8401C1F833
:101EE000000C17E0E0B200F0EEFF4E4A02EB840176
:101EF000D1F8001C4BF68F7201EA020080F480508A
:101F000080F40050474A02EB840100E008E0C1F889
:101F1000000C00BF3F49096848698047002072E70C
:101F200000BF02206FE72DE9F0413948006846798B
:101F300026F080073C4636480068407900F0800073
:101F400038B1384901EB8400D0F8000C00F03005BE
:101F500006E0344901EB8400D0F8000C00F4405551
:101F60002D480078A04208D929480068408820B947
:101F70001DB127480068807A10B90220BDE8F081C1
:101F800006F0800080B1274A02EB8401D1F8001CE2
:101F900048F6BF7201EA020080F01000214A02EB0D
:101FA0008401C1F8000C10E01E4A02EB8401D1F854
:101FB000001C4BF68F7201EA020080F48050194A2F
:101FC00002EB8401C1F8000C00BF1249096888695E
:101FD00080470020D2E710B50D480068407A40F0F5
:101FE00020000B49096848720A490968C869804796
:101FF000002010BD10B5024605480068438AAAB902
:102000008888C01A024C24682082002010BD00007D
:10201000A0000020AC00002020010020A40000202F
:102020009800002000500040240100200868184457
:10203000ECE72DE9F041FE48006800F11004268825
:10204000A068C0B1BEB1A588B54200D93546A8B2D6
:10205000A168884707462088401B20806088284464
:102060006080002000F0A3FF8046AAB241463846B7
:1020700000F088FD00BF208850B14FF44050ED497A
:1020800008800021084600F09EFF3020EA490880C1
:102090002088A188884204DB0320E549096808728A
:1020A00018E02088002804DD0520E149096808724D
:1020B00010E0208870B90620DD4909680872002107
:1020C000DE48006880B2801CDD4A42F810103020E3
:1020D000D9490880BDE8F0812DE9F047D44800686F
:1020E00000F110052E88D2480068077AD6B9042F6F
:1020F00018D1D448007801280FD10021CF480068BA
:1021000080B2801CCE4A42F810103020CA490880A4
:1021100000BF0020CB49087003E007271020C64904
:10212000088027E0AC88A64201D8042000E0022005
:102130000746B44200D93446A0B2A9688847804611
:10214000002000F029FF8146A2B24946404600F037
:10215000FFFCA1B2002000F036FF2888001B288079
:102160006888204468803020B34908800002B14963
:10217000088000BFAE4909680F72BDE8F08770B5EE
:102180000226AB4800684478A9480068007800F04F
:102190007F0000284AD1092C03D1FFF752FD0646E3
:1021A00065E0052C14D1A2480068C0787F280BDCBC
:1021B0009F480068807838B99D480068808818B9C1
:1021C0009B480068807A08B108256BE000264EE045
:1021D000032C14D196480068C07801280DD194488A
:1021E0000068808848B992480068407A00F0200072
:1021F00018B1FFF7F0FE064639E0022637E0012C61
:1022000035D18B480068C07801280DD18848006816
:10221000808848B986480068407A00F0200018B1EC
:10222000FFF7DEFD064622E0022620E08048006837
:10223000007800F07F00012805D10B2C17D1FFF7A3
:102240002FFD064613E07A480068007800F07F0012
:1022500002280BD1012C03D1FFF7C2FD064606E090
:10226000032C04D1FFF75FFE064600E002264EB1C4
:10227000E0B2754A1268516988470646032E01D1BB
:1022800009250FE00EB108250CE0062500216B485A
:10229000006880B2801C6A4A42F8101030206649FB
:1022A000088000BF624909680D7270BD2DE9F84FC2
:1022B0005F48006845780027BA46062D1BD15C4868
:1022C0000068007800F07F00002813D158490968A1
:1022D0008878012803D15C490968CF690AE002289F
:1022E00003D1594909680F6A04E0032802D156490D
:1022F00009684F6A99E0002D67D14D480068408811
:10230000002862D14A480068C08802285DD1484848
:1023100000680079002858D145480068007800F02E
:102320007F0030B942480068808810B9AFF22F674B
:102330007BE03F480068007800F07F00012811D161
:102340003B4909684879404909688A6900219047F2
:1023500000286AD136480068807A002865D0AFF23C
:102360005F6762E032480068007800F07F00022872
:102370005BD12F480068407900F00F062C480068B8
:10238000407900F070092A480068407900F0800028
:1023900038B12E4901EB8600D0F8000C00F030086F
:1023A00006E02A4901EB8600D0F8000C00F4405802
:1023B00027480078B04238D9B9F1000F35D1B8F1CB
:1023C000000F32D0AFF2C7672FE0082D08D11848B0
:1023D0000068007800F07F0038BBAFF2BB7724E0E4
:1023E0000A2D22D112480068007800F07F000128F1
:1023F0001BD10F480068807AB8B10D48006840884A
:1024000098B90B480068007978B909480068C08815
:1024100001280AD10649096848790B4909688A697F
:102420000021904708B9AFF2A977EFB1004811E059
:10243000A0000020B0000020B2000020505C00404E
:10244000006000409A000020A400002000500040DE
:10245000200100200068A0F812A0AE480068876143
:102460000020B84700240FE0AA4A12685078AA4A10
:102470001268116988470446032C05D10920A54933
:1024800009680872BDE8F88FA2480068008A4FF614
:10249000FF71884204D109209E4909680872F1E75A
:1024A000022C03D09B480068008A20B90820994973
:1024B00009680872E6E797480068007800F0800035
:1024C000E0B394480068C088009092480068008A91
:1024D0000099884204D98F4900980968088223E04E
:1024E0008C480068008A8B490968C98888421BDAD1
:1024F00088480068008A8849096891F82C10884249
:1025000003DA0020854908700EE082480068008ADE
:102510008149096891F82C1090FBF1F201FB12003F
:1025200010B901207D4908707B48006890F82C1094
:10253000784800688182FFF7CFFD07E0FFE70320BE
:1025400074490968087200037549088000BF99E75B
:1025500010B5744890F82C10002000F056FD6D481E
:102560000068007A082805D140026D4908801020D3
:102570006D49088067480068007A092801D1012068
:1025800010BD0020FCE708B56848006880B2001D57
:10259000674931F8100080B201EB400000905D48BF
:1025A0000068007A09282FD00098007859490968F6
:1025B00008700098401C0090009800785549096800
:1025C00048700098401C00900098801C0090009972
:1025D00031F8020B009100F0B9FE4E4909684880BD
:1025E0000098801C0090009931F8020B009100F0D7
:1025F000ADFE4849096888800098801C00900098CA
:10260000008844490968C880012042490968087265
:1026100040480068C08810B9FFF7B1FD01E0FFF73E
:1026200045FEFFF795FF08BD30B50146414B1A78CE
:10263000002011E00306404C04EB9353D3F8003C18
:1026400048F68F742340C4B2234304063A4D05EB89
:102650009454C4F8003C401C9042EBD341F08003FA
:10266000324C241F236030BD10B52A480068047A1C
:10267000022C01D0042C05D1FFF72EFD254800685F
:10268000047A1CE0062C19D12248006840780528FD
:102690000ED120480068007800F07F0040B91D4945
:1026A0000968C878FFF7C0FF24490968086A8047AD
:1026B0001949096888688047082400E008241549FA
:1026C00009680C72FFF744FF10BD10B5114800688F
:1026D000047A032C01D0052C05D1FFF7AAFC0D4884
:1026E0000068047A0EE0072C05D10B490968C86818
:1026F0008047082406E0022C01D0042C01D10824D4
:1027000000E00824034909680C72FFF721FF10BD9F
:1027100070470000A0000020A40000209A000020C4
:10272000B000002024010020B2000020505C0040D6
:10273000006000402001002000500040AC0000205C
:1027400010B508480849086002200968087207485F
:10275000074908600748084908600549096808688A
:10276000804710BD48180020A00000202401002050
:10277000A400002054010020AC00002010B500246B
:1027800073E147F6FF70EA490860EA48008800F004
:102790000F00E94908700846007800287ED1E44817
:1027A0004438006800F44050E4490880E048443868
:1027B000006800F03000E2490880DD4944390968CA
:1027C0004BF68F7201EA020080F40050D849443978
:1027D0000860096848F6BF7201EA020080F0200034
:1027E000D34944390860D348008800F0100000281D
:1027F00038D10846006848F60F710840CC49443982
:102800000860FFF731FFCA49443909684BF68F72F7
:1028100001EA0200C949098801F4805109B180F434
:102820008050C649098801F4005109B180F4005074
:10283000BF4944390860096848F6BF7201EA0200DE
:10284000BF49097801F0100109B180F01000BC49BE
:10285000097801F0200109B180F02000B449443921
:10286000086010BDB2484438006884B204F08000AB
:10287000D8B3AF484438006848F60F710840AC49F7
:1028800044390860FFF7F0FEA949443909684BF65E
:102890008F7201EA0200A949098800E0A6E001F46C
:1028A000805109B180F48050A449098801F4005195
:1028B00009B180F400509E4944390860096848F61F
:1028C000BF7201EA02009E49097801F0100109B1C6
:1028D00080F010009A49097801F0200109B180F0D8
:1028E0002000934944390860BBE7FFE704F4006027
:1028F000D8B38F4844380068C0F30E0048F68F7193
:1029000008408B4944390860FFF73DFE8849443947
:1029100009684BF68F7201EA02008849098801F4C0
:10292000805109B180F480508449098801F4005134
:1029300009B180F400507E4944390860096848F6BE
:10294000BF7201EA02007E49097801F0100109B165
:1029500080F010007A49097801F0200109B180F077
:1029600020007349443908607BE7FFE704F4004026
:1029700000287AD06E4844380068C0F30E0048F64C
:102980008F7108406A4944390860FFF79EFE684924
:10299000443909684BF68F7201EA020067490988D9
:1029A00001F4805109B180F480506449098801F430
:1029B000005109B180F400505D494439086009684C
:1029C00048F6BF7201EA02005D49097801F0100182
:1029D00009B180F010005A49097801F0200109B1CD
:1029E00080F020005249443908603AE752480078A4
:1029F000544901EB8000D0F8000C84B204F400408C
:102A0000C0B14D48007801EB8000D0F8000CC0F355
:102A10000E0048F68F71084047490978494A02EB91
:102A20008101C1F8000C44490978491E464A52F810
:102A30002100804704F08000B8B13F480078414948
:102A400001EB8000D0F8000C48F60F7108403A49BD
:102A500009783C4A02EB8101C1F8000C364909783B
:102A6000491E3A4A52F8210080473148006880B236
:102A70003049088000F4004000287FF482AE00BF97
:102A8000EFE610B5002449E047F6FF7028490860DA
:102A90002848008800F00F00274908700846007891
:102AA000284901EB8000D0F8000C84B204F4004007
:102AB000C8B12148007801EB8000D0F8000CC0F3C9
:102AC0000E0048F68F7108401B4909781D4A02EB39
:102AD0008101C1F8000C18490978491E1A4A52F8B8
:102AE000210080471AE004F08000B8B11248007855
:102AF000144901EB8000D0F8000C48F60F71084033
:102B00000D4909780F4A02EB8101C1F8000C0A490E
:102B10000978491E0D4A52F8210080470448006890
:102B200080B20449088000F400400028ACD110BDF8
:102B3000445C0040D00000209C000020B000002039
:102B4000B200002000500040F0000020D40000201F
:102B5000F0B5144604F1010C4FEA6C07DFF848C0E9
:102B60000CEB41033D460AE00678401C90F800C09B
:102B700046EA0C2223F8022B9B1C401C6D1E002DE4
:102B8000F2D1F0BDF0B5561C7510074E06EB4104AE
:102B90002B4605E034F8047B20F8017B401C5B1ECB
:102BA000002BF7D1F0BD000000600040F74908603D
:102BB0007047F648006880B27047F449091D086004
:102BC0007047F248001D006880B27047EF48083037
:102BD000006880B27047ED490C3108607047EB48DF
:102BE0000C30006880B270474FF6F8710140E74A38
:102BF000103211607047E5481030006880B27047AD
:102C0000E34B03EB8002C2F8001C70470146E04A28
:102C100002EB8100D0F8000C80B2704710B5DC4B9D
:102C200003EB8002D2F8002C48F68F131A400A43B7
:102C3000D74C04EB8003C3F8002C10BD0146D44AE6
:102C400002EB8100D0F8000C00F4C060704710B5B2
:102C5000CF4C04EB8003D3F8003C48F6BF7403EA82
:102C6000040201F010030BB182F0100201F0200306
:102C70000BB182F02002C64C04EB8003C3F8002C99
:102C800010BD10B5C24C04EB8003D3F8003C4BF6EA
:102C90008F7403EA040201F480530BB182F4805272
:102CA00001F400530BB182F40052B94C04EB8003E1
:102CB000C3F8002C10BD30B503460C461846FFF78C
:102CC000A5FF0546012C07D125F48050B04A02EB40
:102CD0008301C1F8000C08E0022C06D125F0100099
:102CE000AB4A02EB8301C1F8000C30BD0146A84A93
:102CF00002EB8100D0F8000C00F030007047014674
:102D0000A34A02EB8100D0F8000C00F44050704759
:102D10009F4B03EB8002D2F8002C48F6BF7302EA07
:102D2000030181F0100181F02001994B03EB800237
:102D3000C2F8001C7047964B03EB8002D2F8002CBF
:102D40004BF68F7302EA030181F4805181F4005144
:102D50008F4B03EB8002C2F8001C70478C4A02EBD9
:102D60008001D1F8001C41F4807148F68F72114047
:102D7000874B03EB8002C2F8001C7047844A02EBC9
:102D80008001D1F8001C48F68F621140804B03EBA4
:102D90008002C2F8001C70477D4A02EB8001D1F826
:102DA000001C48F68F621140794B03EB8002C2F899
:102DB000001C7047764A02EB8001D1F8001C41F4F8
:102DC000807148F68F721140714B03EB8002C2F89C
:102DD000001C70476E4A02EB8001D1F8001C41F4E0
:102DE000807148F68F721140694B03EB8002C2F884
:102DF000001C7047664A02EB8001D1F8001C48F6BF
:102E00008F621140624B03EB8002C2F8001C7047D6
:102E100001465F4A02EB8100D0F8000C00F0300060
:102E2000102801D1012070470020FCE70146584AD4
:102E300002EB8100D0F8000C00F44050B0F5805F48
:102E400001D1012070470020FCE7514A02EB8001CC
:102E5000D1F8001CC1F30E0148F68F7211404C4BA3
:102E600003EB8002C2F8001C7047494A02EB800164
:102E7000D1F8001C48F60F721140454B03EB80025D
:102E8000C2F8001C7047424A02EB8001D1F8001CD6
:102E900048F68F72114041F480413D4B03EB8002B4
:102EA000C2F8001C70473A4A02EB8001D1F8001CBE
:102EB00048F68F72114041F04001354B03EB800220
:102EC000C2F8001C7047324A02EB8001D1F8001CA6
:102ED00001F4804169B102EB8001D1F8001C48F691
:102EE0008F72114041F48041294B03EB8002C2F8FC
:102EF000001C7047264A02EB8001D1F8001C01F04B
:102F0000400169B102EB8001D1F8001C48F68F72D4
:102F1000114041F040011E4B03EB8002C2F8001C3F
:102F2000704710B51A4B03EB8002D2F8002C48F61C
:102F30008F731A400A43164C04EB8003C3F8002C2D
:102F400010BD0146124A02EB8100D0F8000C00F0DF
:102F50000F00704710B54A1052000C4B10331B681D
:102F60009BB203EBC0030B4C44F8132010BD10B50B
:102F70004A105300054A1032126892B202EBC002A6
:102F8000121D044C44F8123010BD0000405C00409B
:102F900000500040006000400146EF48006880B2E9
:102FA00000EBC100ED4A32F8100080B270470146D4
:102FB000E948006880B200EBC100001DE74A32F822
:102FC000100080B27047E44A126892B202EBC0026D
:102FD000921CE24B43F81210704702463E290BDD6B
:102FE000481101F01F030BB9431E98B24FF4004380
:102FF00043EA8023136007E0481001F001030BB19E
:10300000431C98B283021360704710B50246D24841
:10301000006880B200EBC200801DD04C04EB40037E
:103020003E290BDD481101F01F040CB9441EA0B26B
:103030004FF4004444EA80241C6007E0481001F08B
:1030400001040CB1441CA0B284021C6010BD0146F6
:10305000C148006880B200EBC100801CBF4A32F852
:103060001000C0F3090070470146BB48006880B2F9
:1030700000EBC100801DB94A32F81000C0F309000E
:10308000704730B54B105B00B34C2468A4B204EB1E
:10309000C004B24D45F8143053105C00AE4B1B68B1
:1030A0009BB203EBC0031B1D45F8134030BD10B5A8
:1030B0004A105200A84B1B689BB203EBC003A74CFD
:1030C00044F8132010BD10B54A105300A24A1268EC
:1030D00092B202EBC002121DA04C44F8123010BD97
:1030E00001469D48006880B200EBC1009B4A32F85F
:1030F000100080B2704701469748006880B200EB2C
:10310000C100001D954A32F8100080B2704730B5FA
:103110000B46012B1FD19049096889B201EBC00110
:10312000891C8E4D05EB41043E2A0BDD511102F046
:103130001F050DB94D1EA9B24FF4004545EA812582
:10314000256007E0511002F001050DB14D1CA9B238
:103150008D0225600AE0022B08D17F49096889B2F7
:1031600001EBC001891C7D4C44F81120012B1FD1BB
:103170007949096889B201EBC001891D774D05EBDA
:1031800041043E2A0BDD511102F01F050DB94D1E01
:10319000A9B24FF4004545EA8125256007E05110AA
:1031A00002F001050DB14D1CA9B28D0225600AE0A7
:1031B000022B08D16849096889B201EBC001891D59
:1031C000664C44F8112030BD30B5034601291FD1AB
:1031D0006148006880B200EBC300801C5F4D05EBC6
:1031E00040043E2A0BDD501102F01F050DB9451EAB
:1031F000A8B24FF4004545EA8025256007E050104D
:1032000002F001050DB1451CA8B2850225600AE057
:10321000022908D15048006880B200EBC300801C2E
:103220004E4C44F8102030BD30B5034601291FD163
:103230004948006880B200EBC300801D474D05EB94
:1032400040043E2A0BDD501102F01F050DB9451E4A
:10325000A8B24FF4004545EA8025256007E05010EC
:1032600002F001050DB1451CA8B2850225600AE0F7
:10327000022908D13848006880B200EBC300801DE5
:10328000364C44F8102030BD01463348006880B207
:1032900000EBC100801C314A32F81000C0F3090075
:1032A000704701462C48006880B200EBC100801DC9
:1032B0002A4A32F81000C0F3090070470146264838
:1032C000006880B200EBC100801D244A32F8100073
:1032D00000F47C4008B1012070471F48006880B2AC
:1032E00000EBC100801C1D4A32F81000C0F3090039
:1032F00008B10220F0E70020EEE710B501290FD158
:10330000174B03EB8002D2F8002C48F68F731A405B
:1033100042F04002124C04EB8003C3F8002C10E092
:1033200002290ED10E4B03EB8002D2F8002C48F696
:103330008F731A4042F48042094C04EB8003C3F8B7
:10334000002C10BD024641EA022070470146CAB275
:103350000B1243EA02207047505C004000600040BE
:103360000050004010B540F20220FDF7D1FC0323CD
:103370004FF4805200210748FDF72FFD10BD0128B2
:1033800003D10121044A116002E00021024A1160C8
:1033900070470000000801408C0121423E4840680F
:1033A00020F480003C4948600846C06940F40000B1
:1033B000C861704703203949086070473848817AEE
:1033C00019B10521354A116002E00121334A11602B
:1033D000704710B53348006840F4802031490860D8
:1033E00030480830006840F480202E4908310860D9
:1033F0000223142201210846FDF7B0FA02232A22F3
:1034000001210020FDF7AAFA10BD10B5002000F040
:10341000E5FB10BD704770B506460C46207870B9C4
:10342000607820700120FFF7B7FD05460822294685
:103430002046FFF78DFB0120FFF76AFC0BE002201E
:10344000FFF7AAFD0546052229462046FFF780FB27
:103450000220FFF75DFC70BD10B5134B18681B1DF3
:1034600019681B1D1A68A8B1104CA070030A2371BB
:10347000030CA371030E2372A1720B0A23730B0CAE
:10348000A3730B0E2374A274130A2375130CA37574
:10349000130E237610BD000000100240D40100205E
:1034A0004818002000040140E8F7FF1FB500002085
:1034B000704700BFFEE700BFFEE700BFFEE700BFAA
:1034C000FEE7704770477047704770477047704716
:1034D0007047704770477047704770477047704734
:1034E0007047704770477047704710B500F02CF870
:1034F00010BD7047704770477047704770477047FE
:103500007047704770477047704770477047704703
:10351000704770470B48006840F4802009490860F4
:1035200070477047704770477047704770477047E3
:1035300070477047704770477047704770477047D3
:10354000704770471404014010B54C4800684C495E
:1035500008800846008800F480604A4909880840CD
:1035600030B14FF6FF304549086047494868804709
:103570004348008800F4005042490988084018B1C7
:103580004DF6FF703D4908603D48008800F48050CA
:103590003C490988084030B14EF6FF703749086051
:1035A000002000F0C0FA3648008800F40060354979
:1035B0000988084060B13548007810B100F093FAEE
:1035C00002E0022000F0AFFA4FF2FF702B490860D2
:1035D0002B48008800F400702A490988084040B14F
:1035E0004FF6FF502549086029480078401C2849BB
:1035F00008702348008800F4807022490988084038
:1036000030B14FF6FF601D490860072000F08BFACB
:103610001B48008800F400401A490988084008B196
:10362000FFF7ACF810BD00201A4908707047002061
:1036300019490870704710B50120FFF77CFB10BDD9
:1036400010B500F03CFB10BD002014490860704725
:1036500010B50320FFF708FD1149086008460088EF
:1036600082B24FF4C4710F48FFF78CFA0320FFF7C2
:1036700062FB10BD10B500F0D2FC10BD445C0040F0
:10368000D0000020AA00002024010020D801002042
:10369000D20000200C0100200D01002014010020A8
:1036A000100100206418002010B5FFF7D5FE00209F
:1036B000E4490968887200F0EBF90020E2490860EB
:1036C0004FF43F40E149088008460088DE49091F61
:1036D00008600020DE49086010BD10B50020D949FF
:1036E00009688872D7490968C872DA48C079D5492B
:1036F000096848720020FFF777FA4FF40071002044
:10370000FFF78CFA10210020FFF7A1FA38210020E2
:10371000FFF72DFC58210020FFF71CFC0020FFF7CD
:103720003BFBCD4890F82C100020FFF76EFC0020EA
:10373000FFF701FB4FF4C0610120FFF76FFA78211A
:103740000120FFF707FC08210120FFF73CFC2021A6
:103750000120FFF77CFA88210120FFF708FC0221F5
:103760000120FFF752FC4FF440510120FFF789FA86
:103770004FF4C0610220FFF751FA98210220FFF7B1
:10378000E9FB05210220FFF71EFC20210220FFF7A4
:103790005EFA00210320FFF741FAB8210320FFF76A
:1037A000D9FB20210320FFF752FA00210320FFF765
:1037B00068FA00210420FFF731FAF8210420FFF70E
:1037C000D6FBA54890F82C100420FFF71EFC4FF400
:1037D00040510420FFF755FA00210420FFF737FA83
:1037E0009D4890F82C100020FFF70FFC0020FFF7F9
:1037F000A2FA0020FEF718FF0120954908609748BB
:103800009749086000209749087010BD10B58D4891
:103810000068807A58B105208D4908600320FFF7C1
:1038200069FB0420FFF74FFB00208E49087010BD94
:10383000042087490860704770477047014629B9DE
:103840000120804A12681082002070478648FCE7F9
:10385000014629B901207B4A126810820020704776
:103860008248FCE710B5044681492046FEF7C2FBBA
:1038700010BD10B504467F492046FEF7BBFB10BDC6
:1038800010B5044601207C4908707C492046FEF7AB
:10389000B1FB10BD10B5044679492046FEF7AAFBDE
:1038A00010BD70B504460025062C29D16548006876
:1038B000007800F07F00012822D16248006840793A
:1038C00002281DDA5F4800688078222809D15D4807
:1038D0000068407910B9AFF2430538E0AFF25F05F8
:1038E00035E0584800688078212830D15548006874
:1038F000407910B9AFF2850529E0AFF2970526E0CF
:1039000050480068007800F07F00212804D1032C83
:1039100002D1AFF2C3051AE04A480068007800F00F
:103920007F00212811D1FE2C0FD146480068408825
:1039300058B944480068808838B942480068C0884F
:10394000012802D1AFF20B1501E0022070BD0DB9C4
:103950000220FBE73B480068856100213948006888
:1039600041820020A8470020F0E736480068C1786F
:103970003E4801600020704710B504463148006899
:10398000007800F07F00212804D10B2C02D1FFF732
:10399000ECFF10BD2B480068007800F07F00212864
:1039A0001AD1FF2C18D1274800684088A0B92548B3
:1039B0000068808880B923480068C08860B9032007
:1039C000FFF798FA0420FFF77EFA2448244908609C
:1039D000002024490870DCE70220DAE710B504462D
:1039E00028492046FEF706FB10BD10B504462649BF
:1039F0002046FEF7FFFA10BD70B505461148006875
:103A0000C478042C01DD002070BD204800EBC40107
:103A10002846FEF7EFFAF7E70246002901DD02200B
:103A20007047022A01DD0220FAE70020F8E710B50E
:103A30000B4800680949884202D0022000F07DF955
:103A400010BD0000A0000020445C0040AA0000203F
:103A5000D4010020AC4F00082401002055534243FC
:103A6000E4180020F00100201C01002018010020B3
:103A7000A001002090010020D0010020980100202A
:103A8000880100207801002080010020A80100208A
:103A900010B5FFF767FC0120FFF771FC01244C48CB
:103AA000046000204B4908800846008848490860A7
:103AB0000020091D08604FF4E05046490880084680
:103AC000008843490860002010BD10B5012040491E
:103AD00008600020091D0860FFF751FC03203C49E5
:103AE0000860002010BD10B53948006884B244F069
:103AF000080437480460006884B244F00404344881
:103B00000460FFF757FC10BD10B53148006884B25F
:103B100024F004042E480460FFF750FC4FF43F40AB
:103B20002B49086010BD70B50546072D01D02A4805
:103B3000057029480078082841D2DFE800F0040A1F
:103B40001016212E4142FFF7DFFF062022490870A0
:103B50003BE0FFF7D9FF04201F49087035E0022041
:103B60001D494870032008702FE01B484078401E14
:103B7000194948700846407808B90420087024E0C4
:103B80001348006884B244F0100411480460052012
:103B9000114908700A20487017E00F484078401E0D
:103BA0000D4948700846407840B90948006884B219
:103BB00024F01004064804600620087005E000BFE9
:103BC00000BF06200449087000BF00BF70BD0000A0
:103BD000405C0040AA000020D901002001460022DC
:103BE00011B1012902D100E002E001E0012070479B
:103BF00000BF1046FBE72DE9F04105460E4617468B
:103C0000984615B1012D0AD107E04FEA6822710AE2
:103C10003846FDF78FFB044604E0002402E0012053
:103C2000BDE8F08100BF0CB10120F9E70020F7E703
:103C30002DE9F04105460E461746984615B1012D6F
:103C40000AD107E04FEA6822710A3846FDF764FBA3
:103C5000044604E0002402E00120BDE8F08100BF3A
:103C60000CB10120F9E70020F7E7014621B1012955
:103C700004D0022906D103E0002070470020FCE7B1
:103C80000120FAE70120F8E770B505460C46FB482D
:103C9000FB490860084605730D22B821FEF758FF5E
:103CA0000D210320FFF78FF90520F64908702CB18C
:103CB0000420087030210320FEF7C9FF70BD10B545
:103CC000F148007840F01000EF490870ED480078A6
:103CD000022810D0032823D0042802D0052829D197
:103CE00000E000BF0020E74908704FF44051042075
:103CF000FEF7C7FF1FE0E548C07B28280ED1E24849
:103D0000007840F00200E0490870E049487BE04953
:103D10000A68E049096800F00AFB00BF00BF0AE03A
:103D200001210020FFF7B0FF4FF440510420FEF7BF
:103D3000A8FF00E000BF00BF10BD10B5044624B1CD
:103D4000012C07D0022C15D10AE010210320FEF728
:103D50007EFF10E04FF480510420FEF792FF0AE04E
:103D600010210320FEF773FF4FF480510420FEF76B
:103D700088FF00E000BF00BF10BD10B5002404E0C4
:103D8000C548005DC1490855641CC4480088844288
:103D9000F6D3BE484068BA494860BC48806888602D
:103DA000BE4800881F280FD00220FFF7C6FF002062
:103DB000B6490860487B1A22052100F0D0F900219D
:103DC0000120FFF761FF10BDB048C07B282803D059
:103DD000AE48C07B2A2816D1AC48407C0106AB48CF
:103DE000807C41EA0041A948C07C41EA0020A74903
:103DF000097D0843A7490860A448C17D807D41EA48
:103E00000020A3490860A1480068A54988426FD1F5
:103E10009E48407BA3490968884207D89B48807B1D
:103E2000012803DB9948807B10280DDD0220FFF775
:103E300084FF9649487B2422052100F090F9002157
:103E40000120FFF721FFE8E09048C07B25285FD0E4
:103E50001BDC15286FD00EDC08286DD006DC00288E
:103E60005BD0032830D0042867D176E00A286ED0D2
:103E70001228F9D12DE01A380A285ED2DFE800F0C6
:103E8000392EB17D33B1B1B1B1438A286FD00EDC88
:103E9000552867D006DC282844D02A284ED02F2861
:103EA000E2D155E05A2829D08828DDD176E0A8282B
:103EB0006DD004DC8F286FD09E28D5D173E0AA285E
:103EC0007BD0AF28D0D182E07049487B00F0DAF98E
:103ED00095E06E49487B00F027F990E06B49487BFC
:103EE00000F0DFF98BE06949487B00F0DAF986E001
:103EF00086E06649487B00F0B7F980E06349487B7B
:103F000000F0B9F97BE06149487B00F02CF976E0DC
:103F10005E49487B00F063F971E05C49487B00F042
:103F2000A9FA6CE05949487B59490A685949096816
:103F300000F0FDF963E01BE024E052E05349487BC8
:103F400053490A685349096800F028FA57E02FE0FE
:103F50004E49487B00F059FA51E04C49487B00F04B
:103F6000A3FA4CE04949487B00F0B4FA47E029E065
:103F70004649487B00F0AEFA41E04449487B00F0F6
:103F8000A9FA3CE04149487B00F0A4FA37E03F49F8
:103F9000487B00F09FFA32E01EE00EE03B49487B90
:103FA00000F098FA2BE03949487B00F093FA26E0BC
:103FB0003649487B00F08EFA21E03449487B00F016
:103FC00089FA1CE03149487B00F084FA17E02F4958
:103FD000487B00F07FFA12E02C49487B00F07AFA27
:103FE0000DE00220FFF7A9FE2849487B2022052189
:103FF00000F0B5F800210120FFF746FE00BF0CE0FD
:104000000220FFF79AFE2149487B2022052100F07B
:10401000A6F800210120FFF737FE00BFD3E610B558
:104020001948007840F01000174908701748C47B01
:104030000420FFF719F81949088008460288F8217A
:104040001548FEF79FFD0F48007810B1012839D1BF
:1040500002E0FFF792FE43E02A2C25D10A480078BF
:1040600040F00100084908700849487B08490A687F
:104070000849096800F092F932E0000055534253B4
:1040800004190020F00100200D020020E418002097
:10409000F8010020F4010020A4180020F201002003
:1040A000555342431C0100200120FFF746FE1B49E7
:1040B000487B2422052100F052F800210220FFF75E
:1040C000E3FD0DE00220FFF738FE1449487B24226F
:1040D000052100F044F800210220FFF7D5FD00BFC4
:1040E00000BF10BD70B505460C462246B8212846D3
:1040F000FEF72EFD21460320FEF765FF3021032049
:10410000FEF7A5FD03200649087006488068001BDD
:10411000044988600020087370BD0000E418002086
:10412000F00100200419002070B50646F948007C13
:1041300000F0010010B1F84C05250BE00EB9F74C6A
:1041400000E0F74CF348C07C242802DCF148C57C31
:1041500000E0242529462046FFF7C4FF70BDF14B3F
:1041600099701A73704710B504462046FFF77DFD1D
:1041700068B1E849487B3A220221FFF7F0FF0121AC
:104180000846FFF781FD0020FFF7D7FD10BDE64888
:1041900050F82400000EE5490871E34850F8240067
:1041A000000C4871E04830F82400000A8871DE48AD
:1041B00010F82400C871DE4850F82400000C487242
:1041C000DB4830F82400000A8872D94810F824002F
:1041D000C8720C21D548FFF785FF00BFD6E710B5A0
:1041E00004462046FFF741FD68B1CA49487B3A22A0
:1041F0000221FFF7B4FF01210846FFF745FD00202B
:10420000FFF79BFD10BDC84850F82400401E000E6B
:10421000C8490870C44850F82400401E000C48707B
:10422000C14830F82400401E000A8870BE4810F8CB
:104230002400401EC870BE4850F82400000E0871CB
:10424000BB4850F82400000C4871B94830F82400ED
:10425000000A8871B64810F82400C8710821B548D2
:10426000FFF740FF00BFCDE710B504460421B24878
:10427000FFF738FF10BD10B504460821AF48FFF71F
:1042800031FF10BD70B50546A248C07C122802DC83
:10429000A048C47C00E012242146A248FFF722FF78
:1042A00070BD10B5044601210020FFF7EDFC10BDE4
:1042B0002DE9F04104460D4617461E46B8199A49A5
:1042C00051F82410884213D92A2D02D10220FFF779
:1042D00034FD0020FFF731FD212205212046FFF7A4
:1042E0003EFF00210120FFF7CFFC0020BDE8F08158
:1042F000884881688E4850F824007043814214D069
:104300002A2D03D10220FFF718FD02E00020FFF75D
:1043100014FD8049487B24220521FFF720FF00215E
:104320000120FFF7B1FC0020E0E70120DEE770B5D7
:1043300006460C4615468248007820BB7549487BE6
:104340002B4622462821FFF7B3FF00B970BD714804
:10435000007B00F0800040B10220794908702A46B5
:104360002146304600F0EEF80CE00220FFF7E5FCB5
:104370006849487B24220521FFF7F1FE0121084608
:10438000FFF782FCE2E76E480078022804D12A4653
:104390002146304600F0D6F800BFD7E770B5064694
:1043A0000C4615466648007820BB5A49487B2B4688
:1043B00022462A21FFF77CFF00B970BD5548007BDB
:1043C00000F0800040B901205D4908704FF4405171
:1043D0000420FEF756FC0CE00020FFF7AEFC4D4930
:1043E000487B24220521FFF7BAFE00210120FFF7B8
:1043F0004BFCE2E752480078012804D12A462146C6
:10440000304600F019F900BFD7E710B5044641481F
:10441000806848B93F48007C00F0040020B90121C1
:104420000020FFF731FC0CE00220FFF786FC394941
:10443000487B24220521FFF792FE00210120FFF78F
:1044400023FC10BD10B504463248806868B10220D4
:10445000FFF773FC2F49487B20220521FFF77FFEE1
:1044600000210120FFF710FC03E001210020FFF7ED
:104470000BFC10BD10B504462046FFF7F6FB68B1F3
:104480002449487B3A220221FFF769FE01210846B0
:10449000FFF7FAFB0020FFF750FC10BD01210020C0
:1044A000FFF7F2FB00BFF8E710B504462046FFF720
:1044B000DCFB68B11749487B3A220221FFF74FFE27
:1044C00001210846FFF7E0FB0020FFF736FC10BD96
:1044D00000BFFCE710B504460E48806818B90020FC
:1044E000FFF72BFC0BE00B48007B00F0800018B1BD
:1044F0000020FFF722FC02E00220FFF71EFC054926
:10450000487B20220521FFF72AFE00210120FFF72A
:10451000BBFB10BDE4180020200200202502002073
:104520004A0200207A020020EC01002094020020C0
:10453000E80100208C0200206E02002072020020A0
:10454000F00100202DE9F04104460D4616467D4855
:10455000007870B97C4850F8240068437B490860B3
:10456000794850F824007043794908600120754962
:1045700008707448007801284CD17648006800BB68
:10458000714830F8240083B2734A704801682046AD
:10459000FFF74EFBC7B22FB17048007840F008001B
:1045A0006E4908704022B8216B48FEF7D1FA664880
:1045B00050F8240040386749086040206849086086
:1045C00011E06549664A126888184022B821FEF752
:1045D000BFFA6048006840385E490860604800687B
:1045E00040305F49086040210320FEF7ECFC302199
:1045F0000320FEF72CFB5548006840305349086003
:10460000534800684038524908605648806840382E
:10461000544988604E48006860B900204D490860E0
:104620004F4908604949086003204F49087000203D
:1046300044490870BDE8F0812DE9F04104460D467B
:1046400016464A48006800F140083E48007870B9B4
:104650003D4850F824006843454908603A4850F8FE
:1046600024007043434908600120364908703548EA
:104670000078012854D100203F49086010E03E48EE
:1046800001680068401C3C4A10603C48415C32486C
:10469000364A1268815435480068401C3349086026
:1046A000324800684045EAD33148006834490988F7
:1046B00008442F4908602F48006831490988401A8A
:1046C0002C490860204850F824000968B1FBF0F23A
:1046D00000FB1210C0B90020244908601A4830F8C5
:1046E000240083B2184850F82400214A1268111A95
:1046F000194A2046FFF77FFAC7B22FB11748007852
:1047000040F0040015490870164880681C49098863
:10471000401A144988604FF440510420FEF7B1FA62
:104720001448006818B110480078042808D1002007
:104730000E4908600121FFF7A7FA0020014908701F
:10474000BDE8F0810C020020E801002010020020EA
:1047500014020020FC010020141900200D0200208A
:104760000002002004190020F001002004020020B3
:10477000180200201C02002008020020A4180020BB
:10478000F2010020704700000FB4044910B503AADD
:10479000029800F001F910BC5DF814FB80000020C5
:1047A0002DE9F0410E460446002020622046E168D3
:1047B000884730B3252805D0D4E901219047206AE5
:1047C000401CF2E7E168204600278847050018D022
:1047D000A5F14100192802D820354FF40067324670
:1047E000294620462760FBF7DBFC40B1012804D0B6
:1047F000F61D26F007060836D8E7361DD6E7284608
:10480000DAE7206ABDE8F0812DE9F0410646002490
:1048100010687529314616A510D0AFF30080002826
:1048200002DA404213A507E031688A0701D512A5D4
:1048300002E0490704D511A5012401E0AFF300808F
:1048400000210A2206F1240709E0B0FBF2FCB0FBCC
:10485000F2F302FB1C00303078541846491C002843
:10486000F3D123462A463046BDE8F04100F03AB87D
:10487000000000002D0000002B00000020000000C0
:1048800070B504460D4621461068AFF300802188BC
:10489000090502D50F4A7A4402E00E4A7A440E32E4
:1048A000002104F1240305E000F00F060009965DE5
:1048B0005E54491C0028F7D120780023000704D556
:1048C000702D02D009B1022311322046BDE870409C
:1048D00000F008B828080000FCF79AB97047704744
:1048E000704770472DE9F0470D46994692460446B9
:1048F00000F124080168880604D5E06921F0100160
:10490000216000E00120A84201DD471B00E00027F4
:10491000A1697A1902EB0900081AA0612078C00683
:1049200002D42046AFF30080002608E0D4E901213C
:104930001AF806009047206A401C761C20624E45FB
:10494000F4DB2078C0060AD52046AFF3008006E0ED
:10495000D4E9012130209047206A401C2062381E93
:10496000A7F10107F4DC07E0D4E9012118F80500FC
:104970009047206A401C2062281EA5F10105F3DC47
:104980002046AFF300802078000602D50220BDE863
:10499000F0870120FBE70000074B70B50D467B4414
:1049A00000F011F80446284600F020F810B14FF04E
:1049B000FF3070BD204670BD6FC2FFFF01694A1C09
:1049C00002610878704700B58FB0CDE90131002150
:1049D000059105497944CDE9031011466846FFF772
:1049E000DFFE0FB000BD0000E5FFFFFF007B00F021
:1049F00080007047754600F029F8AE46050069460C
:104A0000534620F00700854618B020B5FBF7F6FBAB
:104A1000BDE820404FF000064FF000074FF00008BF
:104A20004FF0000B21F00701AC46ACE8C009ACE840
:104A3000C009ACE8C009ACE8C0098D46704704461F
:104A4000AFF300802046FBF7C0FB00000048704732
:104A5000141B002090EA010F48BF81F0004100F1D3
:104A60002E82421A3CBF801A89184FEAD0524FF06A
:104A70007F4C1CEA410FA2EBD15318BF9CEA026F96
:104A800000F03B804FF0004C4CEA00204CEA012142
:104A900021FA03FC10EB0C0C1ED202F1FF325FEA8C
:104AA0001C2040EBC25038BF70471CF07F0F4FEA0C
:104AB000400C18BFBCF17F4F38BF7047C3F12003D3
:104AC000994008BF20F00100BCF17F4F38BF70470C
:104AD000A0F1C04000F0DDB94FEA3C00000A40EB15
:104AE000C25028BF1CF0FF0F4FEA400CE6D018BFA1
:104AF000BCF17F4F38BF7047EAE79CEA026F05D0F0
:104B000010EA5C0F08BF00F00040704710B500F0DD
:104B10007AF900BF64FBBE3E4FF47F0C1CEAD01252
:104B20001EBF1CEAD11392EA0C0F93EA0C0F00F09F
:104B3000858090EA010F48BF42F4807240F4000C77
:104B400041F400002CF07F4120F07F4000B581420D
:104B5000A2EB03020FF2081CACEB504EC0F10000B8
:104B60009EF800E04FEA4E0E00FB0EFC38BF4900F5
:104B70004FEA2C1C02F5FA020CFB0EF34FEACE1E94
:104B80004FEA112C4FEAC1210EEB635E42EB224249
:104B90000EFB0CFC4FEA1C5300FB03114FEA112CD7
:104BA0004FEA01310EFB0CFC4FEADC4C00FB0C1110
:104BB000C14228BF09184CEB03335DF804EB10EB3E
:104BC000410143EBC250B2F57C0F38BF704729D585
:104BD00012F0F00F1CBF00F1C04000F00040704721
:104BE000008182838485868788898B8C8D8E8F91C6
:104BF0009293959697999A9C9D9FA0A2A3A5A7A8EA
:104C0000AAACAEB0B2B3B5B7B9BCBEC0C2C5C7C915
:104C1000CCCED1D4D7D9DCDFE2E6E9ECF0F3F7FA79
:104C2000FE0000004FEA400C0CF1807CBCF17E4F8E
:104C300028BF7047B0F1C04000F02BB990EA010FD7
:104C40000CEAD11348BF42F48072624538BF634515
:104C500007D213F47F0F16D080EA010000F0004065
:104C6000704710B500F0CFF8097EFC3E00F005B8A3
:104C700080EA010000F00040704780EA010000F087
:104C8000004000F006B912F47F0F04BF02487047DD
:104C900080EA010000F0FDB80000C07FC10DD1F135
:104CA0009E0206DB4FEA002343F0004323FA02F0A2
:104CB0007047004207D54FEA4001B1F1FE4F02D2E2
:104CC0004FF00000704710B500F09DF84992248025
:104CD000002070476FEA200070470000B0FA80F3B0
:104CE00010FA03F2C3F19D030AD0D90501EB12209B
:104CF000530638BF704700F1010008BF20F00100E3
:104D0000704700004FF47F0C1CEAD0121EBF1CEA53
:104D1000D11392EA0C0F93EA0C0F00F0478090EA4F
:104D2000010F48BF42F480724FF0004C4CEA002063
:104D30004CEA012102EB0302A0FB0113A2F50002E1
:104D4000002918BF43F001035B0028BF4FEA33037B
:104D500042EB22425FEA132C4CEBC2502EBFBCEB5D
:104D6000436FB2F57C0F70474FEA036CBCF1004F04
:104D700008BF20F00100B2F57C0F38BF70470BD59B
:104D800082F0FF0212F5803FC8BF704700F1C040BB
:104D9000D8BF00F00040704700F5000C5FEA4C0CF3
:104DA00048BF7047B0F1C04000F073B890EA010FFF
:104DB0000CEAD11348BF42F48072624538BF6345A4
:104DC00004D280EA010000F00040704710B500F006
:104DD0001AF800BF8900013E00F007B800F009B8DA
:104DE0005FEA410C5FEA1C6C08D080EA010000F029
:104DF00050B85FEA400C5FEA1C6CF6D14FF00040FF
:104E0000A0F5800070470EF1020E2EF0030E5EF842
:104E1000044B244204D44FEA4102B2F17F4F11D82F
:104E20004FEA4003B3F17F4F0CD80ED14FEAD07C4C
:104E3000B2F17F4F0CEB4C0C0CF1020C08BF4CEBA9
:104E4000D17C04E04FF0080C01E04FEAD17C0CEB80
:104E50004C0324FA03F404F00704B4F1040C06D262
:104E60000EEB840CBDE810404CF0010C6047DFE80D
:104E70000CF0070802024FF00040A0F5800010BDC2
:104E80000846420018BFD2F1807288BF00F000408F
:104E900010BDFF2141EAD050C005704780F00040AE
:104EA00090EA010F7FF5DDAD81F0004100F007B819
:104EB00090EA010F48BF81F000413FF5D2AD421AA0
:104EC00004D882F00042A0EB020011444FEAD05215
:104ED0004FF07F4C1CEA410FA2EBD15318BF9CEA64
:104EE000026F4AD04FF0004C4CEA00204CEA0121FE
:104EF00021FA03FCB0EB0C0C0FD412F0FE0F36D0ED
:104F00005FEA4C001DD5001240EBC25038BF70471D
:104F10001CF03F0F18BF70470BE0A2F101025FEADF
:104F20001C2040EBC25038BF70471CF07F0F18BFE9
:104F30007047C3F12003994014BF401E20F00100C8
:104F4000704780084FEA122308BF7047B0FA80FC10
:104F5000A2EB0C02CCF1280C60FA0CF093EA122FB1
:104F600004BF00EBC25070474FEAC3707047130A8A
:104F70005FEADC1008BF7047F6E79CEA026F04D0D6
:104F800010EA5C0F08BF0020704710B5FFF73BFF29
:104F900040DFF63E81F00040704712010002000041
:104FA0000040830450570002010203010902590026
:104FB00003010080320904000002030101000921FD
:104FC00010012101223F000705810310000A070597
:104FD000010310000A090401000103010200092174
:104FE000100121012236000705820340000A09044E
:104FF000020002080650040705830240000007056E
:10500000040240000005010906A101050719E02975
:10501000E715002501750195088102950175088144
:10502000039505750105081901290591029501757A
:1050300003910395067508150025650507190029D4
:10504000658100C005010902A10185010901A100D6
:105050000509190129031500250195037501810230
:10506000950175058103050109300931093815815C
:10507000257F750895038106C0C004030904260333
:10508000530054004D006900630072006F0065001A
:105090006C0065006300740072006F006E006900B0
:1050A000630073001E03530054004D0033003200B0
:1050B00020004A006E0079007300740069006300EC
:1050C0006B0030313233343536373839414243445E
:1050D0004546403058003031323334353637383970
:1050E0006162636465664030780000000C5100081E
:1050F00000000020A0020000280100086052000803
:10510000A0020020D81A0000840100081037291ED0
:105110001F20212223242526272D2E2A2B141A086E
:1051200015171C180C12132F303139041607090AF1
:105130000B0D0E0F33342828E1E11D1B0619051154
:10514000103637382008E5E0E35251E22C34E4FE13
:10515000FF1817433043314332433343344335431D
:105160003643374338433943311510083143313220
:10517000433133000B15423542364237423842390B
:10518000032D14EF141A03531254124D123312321A
:1051900012310210301327361B082F041A41041352
:1051A00011275B08490829049A370C9A750C1A5183
:1051B0000C01142305011AA91C1ADB041339381B2E
:1051C000083B041AA3041379391408193A1B08DDA3
:1051D000081AEB041AF90441324029501A0D2469C7
:1051E0005C29041A2F2C690C1A311C139A4F3308AE
:1051F000121AAC082A5968125033083F1ABE1032EE
:10520000091A441032365ADE101A7A1032041A7E05
:105210000832261AA408321E22B59B201A088119CA
:10522000B7014B3580020221281E414C49454E549E
:10523000454B20534420466C617368204469736B6E
:10524000202020312E302025BA2025AB5049262998
:105250002442036206627002150A4208320200000C
:04000005080000ED02
:00000001FF
